{
	"Ecommerce Contract/Ecommerce.sol": {
		"Ecommerce": {
			"abi": [
				{
					"inputs": [],
					"stateMutability": "nonpayable",
					"type": "constructor"
				},
				{
					"anonymous": false,
					"inputs": [
						{
							"indexed": false,
							"internalType": "uint256",
							"name": "productId",
							"type": "uint256"
						},
						{
							"indexed": false,
							"internalType": "address",
							"name": "buyer",
							"type": "address"
						}
					],
					"name": "bought",
					"type": "event"
				},
				{
					"anonymous": false,
					"inputs": [
						{
							"indexed": false,
							"internalType": "uint256",
							"name": "productId",
							"type": "uint256"
						}
					],
					"name": "delivered",
					"type": "event"
				},
				{
					"anonymous": false,
					"inputs": [
						{
							"indexed": false,
							"internalType": "string",
							"name": "title",
							"type": "string"
						},
						{
							"indexed": false,
							"internalType": "uint256",
							"name": "productId",
							"type": "uint256"
						},
						{
							"indexed": false,
							"internalType": "address",
							"name": "seller",
							"type": "address"
						}
					],
					"name": "registered",
					"type": "event"
				},
				{
					"inputs": [
						{
							"internalType": "uint256",
							"name": "_productId",
							"type": "uint256"
						}
					],
					"name": "buy",
					"outputs": [],
					"stateMutability": "payable",
					"type": "function"
				},
				{
					"inputs": [
						{
							"internalType": "uint256",
							"name": "_productId",
							"type": "uint256"
						}
					],
					"name": "delivery",
					"outputs": [],
					"stateMutability": "nonpayable",
					"type": "function"
				},
				{
					"inputs": [],
					"name": "destroy",
					"outputs": [],
					"stateMutability": "nonpayable",
					"type": "function"
				},
				{
					"inputs": [
						{
							"internalType": "uint256",
							"name": "",
							"type": "uint256"
						}
					],
					"name": "products",
					"outputs": [
						{
							"internalType": "string",
							"name": "title",
							"type": "string"
						},
						{
							"internalType": "string",
							"name": "desc",
							"type": "string"
						},
						{
							"internalType": "address payable",
							"name": "seller",
							"type": "address"
						},
						{
							"internalType": "uint256",
							"name": "productId",
							"type": "uint256"
						},
						{
							"internalType": "uint256",
							"name": "price",
							"type": "uint256"
						},
						{
							"internalType": "address",
							"name": "buyer",
							"type": "address"
						},
						{
							"internalType": "bool",
							"name": "delivered",
							"type": "bool"
						}
					],
					"stateMutability": "view",
					"type": "function"
				},
				{
					"inputs": [
						{
							"internalType": "string",
							"name": "_title",
							"type": "string"
						},
						{
							"internalType": "string",
							"name": "_desc",
							"type": "string"
						},
						{
							"internalType": "uint256",
							"name": "_price",
							"type": "uint256"
						}
					],
					"name": "registerProduct",
					"outputs": [],
					"stateMutability": "nonpayable",
					"type": "function"
				}
			],
			"devdoc": {
				"kind": "dev",
				"methods": {},
				"version": 1
			},
			"evm": {
				"assembly": "    /* \"Ecommerce Contract/Ecommerce.sol\":63:2030  contract Ecommerce{... */\n  mstore(0x40, 0x80)\n    /* \"Ecommerce Contract/Ecommerce.sol\":293:294  1 */\n  0x01\n    /* \"Ecommerce Contract/Ecommerce.sol\":280:294  uint counter=1 */\n  0x00\n  sstore\n    /* \"Ecommerce Contract/Ecommerce.sol\":376:381  false */\n  0x00\n    /* \"Ecommerce Contract/Ecommerce.sol\":361:381  bool destroyed=false */\n  0x02\n  exp(0x0100, 0x14)\n  dup2\n  sload\n  dup2\n  0xff\n  mul\n  not\n  and\n  swap1\n  dup4\n  iszero\n  iszero\n  mul\n  or\n  swap1\n  sstore\n  pop\n    /* \"Ecommerce Contract/Ecommerce.sol\":490:547  constructor(){... */\n  callvalue\n  dup1\n  iszero\n  tag_1\n  jumpi\n  0x00\n  dup1\n  revert\ntag_1:\n  pop\n    /* \"Ecommerce Contract/Ecommerce.sol\":529:539  msg.sender */\n  caller\n    /* \"Ecommerce Contract/Ecommerce.sol\":513:520  manager */\n  0x02\n  0x00\n    /* \"Ecommerce Contract/Ecommerce.sol\":513:540  manager=payable(msg.sender) */\n  0x0100\n  exp\n  dup2\n  sload\n  dup2\n  0xffffffffffffffffffffffffffffffffffffffff\n  mul\n  not\n  and\n  swap1\n  dup4\n  0xffffffffffffffffffffffffffffffffffffffff\n  and\n  mul\n  or\n  swap1\n  sstore\n  pop\n    /* \"Ecommerce Contract/Ecommerce.sol\":63:2030  contract Ecommerce{... */\n  dataSize(sub_0)\n  dup1\n  dataOffset(sub_0)\n  0x00\n  codecopy\n  0x00\n  return\nstop\n\nsub_0: assembly {\n        /* \"Ecommerce Contract/Ecommerce.sol\":63:2030  contract Ecommerce{... */\n      mstore(0x40, 0x80)\n      jumpi(tag_1, lt(calldatasize, 0x04))\n      shr(0xe0, calldataload(0x00))\n      dup1\n      0x1144fd72\n      eq\n      tag_2\n      jumpi\n      dup1\n      0x3153a15b\n      eq\n      tag_3\n      jumpi\n      dup1\n      0x7acc0b20\n      eq\n      tag_4\n      jumpi\n      dup1\n      0x83197ef0\n      eq\n      tag_5\n      jumpi\n      dup1\n      0xd96a094a\n      eq\n      tag_6\n      jumpi\n    tag_1:\n      0x00\n      dup1\n      revert\n        /* \"Ecommerce Contract/Ecommerce.sol\":1573:1882  function delivery(uint _productId) public isNotDestroyed{... */\n    tag_2:\n      callvalue\n      dup1\n      iszero\n      tag_7\n      jumpi\n      0x00\n      dup1\n      revert\n    tag_7:\n      pop\n      tag_8\n      0x04\n      dup1\n      calldatasize\n      sub\n      dup2\n      add\n      swap1\n      tag_9\n      swap2\n      swap1\n      tag_10\n      jump\t// in\n    tag_9:\n      tag_11\n      jump\t// in\n    tag_8:\n      stop\n        /* \"Ecommerce Contract/Ecommerce.sol\":705:1226  function registerProduct(string memory _title,string memory _desc,uint _price)public isNotDestroyed{... */\n    tag_3:\n      callvalue\n      dup1\n      iszero\n      tag_12\n      jumpi\n      0x00\n      dup1\n      revert\n    tag_12:\n      pop\n      tag_13\n      0x04\n      dup1\n      calldatasize\n      sub\n      dup2\n      add\n      swap1\n      tag_14\n      swap2\n      swap1\n      tag_15\n      jump\t// in\n    tag_14:\n      tag_16\n      jump\t// in\n    tag_13:\n      stop\n        /* \"Ecommerce Contract/Ecommerce.sol\":300:325  Product[] public products */\n    tag_4:\n      callvalue\n      dup1\n      iszero\n      tag_17\n      jumpi\n      0x00\n      dup1\n      revert\n    tag_17:\n      pop\n      tag_18\n      0x04\n      dup1\n      calldatasize\n      sub\n      dup2\n      add\n      swap1\n      tag_19\n      swap2\n      swap1\n      tag_10\n      jump\t// in\n    tag_19:\n      tag_20\n      jump\t// in\n    tag_18:\n      mload(0x40)\n      tag_21\n      swap8\n      swap7\n      swap6\n      swap5\n      swap4\n      swap3\n      swap2\n      swap1\n      tag_22\n      jump\t// in\n    tag_21:\n      mload(0x40)\n      dup1\n      swap2\n      sub\n      swap1\n      return\n        /* \"Ecommerce Contract/Ecommerce.sol\":1887:2027  function destroy() public {... */\n    tag_5:\n      callvalue\n      dup1\n      iszero\n      tag_23\n      jumpi\n      0x00\n      dup1\n      revert\n    tag_23:\n      pop\n      tag_24\n      tag_25\n      jump\t// in\n    tag_24:\n      stop\n        /* \"Ecommerce Contract/Ecommerce.sol\":1231:1568  function buy(uint _productId) payable public isNotDestroyed{... */\n    tag_6:\n      tag_26\n      0x04\n      dup1\n      calldatasize\n      sub\n      dup2\n      add\n      swap1\n      tag_27\n      swap2\n      swap1\n      tag_10\n      jump\t// in\n    tag_27:\n      tag_28\n      jump\t// in\n    tag_26:\n      stop\n        /* \"Ecommerce Contract/Ecommerce.sol\":1573:1882  function delivery(uint _productId) public isNotDestroyed{... */\n    tag_11:\n        /* \"Ecommerce Contract/Ecommerce.sol\":430:439  destroyed */\n      0x02\n      0x14\n      swap1\n      sload\n      swap1\n      0x0100\n      exp\n      swap1\n      div\n      0xff\n      and\n        /* \"Ecommerce Contract/Ecommerce.sol\":429:439  !destroyed */\n      iszero\n        /* \"Ecommerce Contract/Ecommerce.sol\":421:466  require(!destroyed,\"Contract does not exist\") */\n      tag_30\n      jumpi\n      mload(0x40)\n      0x08c379a000000000000000000000000000000000000000000000000000000000\n      dup2\n      mstore\n      0x04\n      add\n      tag_31\n      swap1\n      tag_32\n      jump\t// in\n    tag_31:\n      mload(0x40)\n      dup1\n      swap2\n      sub\n      swap1\n      revert\n    tag_30:\n        /* \"Ecommerce Contract/Ecommerce.sol\":1677:1687  msg.sender */\n      caller\n        /* \"Ecommerce Contract/Ecommerce.sol\":1647:1687  products[_productId-1].buyer==msg.sender */\n      0xffffffffffffffffffffffffffffffffffffffff\n      and\n        /* \"Ecommerce Contract/Ecommerce.sol\":1647:1655  products */\n      0x01\n        /* \"Ecommerce Contract/Ecommerce.sol\":1667:1668  1 */\n      dup1\n        /* \"Ecommerce Contract/Ecommerce.sol\":1656:1666  _productId */\n      dup4\n        /* \"Ecommerce Contract/Ecommerce.sol\":1656:1668  _productId-1 */\n      tag_34\n      swap2\n      swap1\n      tag_35\n      jump\t// in\n    tag_34:\n        /* \"Ecommerce Contract/Ecommerce.sol\":1647:1669  products[_productId-1] */\n      dup2\n      sload\n      dup2\n      lt\n      tag_36\n      jumpi\n      tag_37\n      tag_38\n      jump\t// in\n    tag_37:\n    tag_36:\n      swap1\n      0x00\n      mstore\n      keccak256(0x00, 0x20)\n      swap1\n      0x06\n      mul\n      add\n        /* \"Ecommerce Contract/Ecommerce.sol\":1647:1675  products[_productId-1].buyer */\n      0x05\n      add\n      0x00\n      swap1\n      sload\n      swap1\n      0x0100\n      exp\n      swap1\n      div\n      0xffffffffffffffffffffffffffffffffffffffff\n      and\n        /* \"Ecommerce Contract/Ecommerce.sol\":1647:1687  products[_productId-1].buyer==msg.sender */\n      0xffffffffffffffffffffffffffffffffffffffff\n      and\n      eq\n        /* \"Ecommerce Contract/Ecommerce.sol\":1639:1713  require(products[_productId-1].buyer==msg.sender,\"Only buyer can confirm\") */\n      tag_40\n      jumpi\n      mload(0x40)\n      0x08c379a000000000000000000000000000000000000000000000000000000000\n      dup2\n      mstore\n      0x04\n      add\n      tag_41\n      swap1\n      tag_42\n      jump\t// in\n    tag_41:\n      mload(0x40)\n      dup1\n      swap2\n      sub\n      swap1\n      revert\n    tag_40:\n        /* \"Ecommerce Contract/Ecommerce.sol\":1756:1760  true */\n      0x01\n        /* \"Ecommerce Contract/Ecommerce.sol\":1723:1731  products */\n      dup1\n        /* \"Ecommerce Contract/Ecommerce.sol\":1743:1744  1 */\n      0x01\n        /* \"Ecommerce Contract/Ecommerce.sol\":1732:1742  _productId */\n      dup4\n        /* \"Ecommerce Contract/Ecommerce.sol\":1732:1744  _productId-1 */\n      tag_43\n      swap2\n      swap1\n      tag_35\n      jump\t// in\n    tag_43:\n        /* \"Ecommerce Contract/Ecommerce.sol\":1723:1745  products[_productId-1] */\n      dup2\n      sload\n      dup2\n      lt\n      tag_44\n      jumpi\n      tag_45\n      tag_38\n      jump\t// in\n    tag_45:\n    tag_44:\n      swap1\n      0x00\n      mstore\n      keccak256(0x00, 0x20)\n      swap1\n      0x06\n      mul\n      add\n        /* \"Ecommerce Contract/Ecommerce.sol\":1723:1755  products[_productId-1].delivered */\n      0x05\n      add\n      0x14\n        /* \"Ecommerce Contract/Ecommerce.sol\":1723:1760  products[_productId-1].delivered=true */\n      0x0100\n      exp\n      dup2\n      sload\n      dup2\n      0xff\n      mul\n      not\n      and\n      swap1\n      dup4\n      iszero\n      iszero\n      mul\n      or\n      swap1\n      sstore\n      pop\n        /* \"Ecommerce Contract/Ecommerce.sol\":1770:1778  products */\n      0x01\n        /* \"Ecommerce Contract/Ecommerce.sol\":1790:1791  1 */\n      dup1\n        /* \"Ecommerce Contract/Ecommerce.sol\":1779:1789  _productId */\n      dup3\n        /* \"Ecommerce Contract/Ecommerce.sol\":1779:1791  _productId-1 */\n      tag_47\n      swap2\n      swap1\n      tag_35\n      jump\t// in\n    tag_47:\n        /* \"Ecommerce Contract/Ecommerce.sol\":1770:1792  products[_productId-1] */\n      dup2\n      sload\n      dup2\n      lt\n      tag_48\n      jumpi\n      tag_49\n      tag_38\n      jump\t// in\n    tag_49:\n    tag_48:\n      swap1\n      0x00\n      mstore\n      keccak256(0x00, 0x20)\n      swap1\n      0x06\n      mul\n      add\n        /* \"Ecommerce Contract/Ecommerce.sol\":1770:1799  products[_productId-1].seller */\n      0x02\n      add\n      0x00\n      swap1\n      sload\n      swap1\n      0x0100\n      exp\n      swap1\n      div\n      0xffffffffffffffffffffffffffffffffffffffff\n      and\n        /* \"Ecommerce Contract/Ecommerce.sol\":1770:1808  products[_productId-1].seller.transfer */\n      0xffffffffffffffffffffffffffffffffffffffff\n      and\n        /* \"Ecommerce Contract/Ecommerce.sol\":1770:1838  products[_productId-1].seller.transfer(products[_productId-1].price) */\n      0x08fc\n        /* \"Ecommerce Contract/Ecommerce.sol\":1809:1817  products */\n      0x01\n        /* \"Ecommerce Contract/Ecommerce.sol\":1829:1830  1 */\n      dup1\n        /* \"Ecommerce Contract/Ecommerce.sol\":1818:1828  _productId */\n      dup5\n        /* \"Ecommerce Contract/Ecommerce.sol\":1818:1830  _productId-1 */\n      tag_51\n      swap2\n      swap1\n      tag_35\n      jump\t// in\n    tag_51:\n        /* \"Ecommerce Contract/Ecommerce.sol\":1809:1831  products[_productId-1] */\n      dup2\n      sload\n      dup2\n      lt\n      tag_52\n      jumpi\n      tag_53\n      tag_38\n      jump\t// in\n    tag_53:\n    tag_52:\n      swap1\n      0x00\n      mstore\n      keccak256(0x00, 0x20)\n      swap1\n      0x06\n      mul\n      add\n        /* \"Ecommerce Contract/Ecommerce.sol\":1809:1837  products[_productId-1].price */\n      0x04\n      add\n      sload\n        /* \"Ecommerce Contract/Ecommerce.sol\":1770:1838  products[_productId-1].seller.transfer(products[_productId-1].price) */\n      swap1\n      dup2\n      iszero\n      mul\n      swap1\n      mload(0x40)\n      0x00\n      mload(0x40)\n      dup1\n      dup4\n      sub\n      dup2\n      dup6\n      dup9\n      dup9\n      call\n      swap4\n      pop\n      pop\n      pop\n      pop\n      iszero\n      dup1\n      iszero\n      tag_56\n      jumpi\n      returndatasize\n      0x00\n      dup1\n      returndatacopy\n      revert(0x00, returndatasize)\n    tag_56:\n      pop\n        /* \"Ecommerce Contract/Ecommerce.sol\":1853:1874  delivered(_productId) */\n      0x4b5e4108167a669a2da8b1edeb1bf605987224cec90eeca47f7f235104539f21\n        /* \"Ecommerce Contract/Ecommerce.sol\":1863:1873  _productId */\n      dup2\n        /* \"Ecommerce Contract/Ecommerce.sol\":1853:1874  delivered(_productId) */\n      mload(0x40)\n      tag_57\n      swap2\n      swap1\n      tag_58\n      jump\t// in\n    tag_57:\n      mload(0x40)\n      dup1\n      swap2\n      sub\n      swap1\n      log1\n        /* \"Ecommerce Contract/Ecommerce.sol\":1573:1882  function delivery(uint _productId) public isNotDestroyed{... */\n      pop\n      jump\t// out\n        /* \"Ecommerce Contract/Ecommerce.sol\":705:1226  function registerProduct(string memory _title,string memory _desc,uint _price)public isNotDestroyed{... */\n    tag_16:\n        /* \"Ecommerce Contract/Ecommerce.sol\":430:439  destroyed */\n      0x02\n      0x14\n      swap1\n      sload\n      swap1\n      0x0100\n      exp\n      swap1\n      div\n      0xff\n      and\n        /* \"Ecommerce Contract/Ecommerce.sol\":429:439  !destroyed */\n      iszero\n        /* \"Ecommerce Contract/Ecommerce.sol\":421:466  require(!destroyed,\"Contract does not exist\") */\n      tag_60\n      jumpi\n      mload(0x40)\n      0x08c379a000000000000000000000000000000000000000000000000000000000\n      dup2\n      mstore\n      0x04\n      add\n      tag_61\n      swap1\n      tag_32\n      jump\t// in\n    tag_61:\n      mload(0x40)\n      dup1\n      swap2\n      sub\n      swap1\n      revert\n    tag_60:\n        /* \"Ecommerce Contract/Ecommerce.sol\":829:830  0 */\n      0x00\n        /* \"Ecommerce Contract/Ecommerce.sol\":822:828  _price */\n      dup2\n        /* \"Ecommerce Contract/Ecommerce.sol\":822:830  _price>0 */\n      gt\n        /* \"Ecommerce Contract/Ecommerce.sol\":814:867  require(_price>0,\"Price should be greater than zero\") */\n      tag_63\n      jumpi\n      mload(0x40)\n      0x08c379a000000000000000000000000000000000000000000000000000000000\n      dup2\n      mstore\n      0x04\n      add\n      tag_64\n      swap1\n      tag_65\n      jump\t// in\n    tag_64:\n      mload(0x40)\n      dup1\n      swap2\n      sub\n      swap1\n      revert\n    tag_63:\n        /* \"Ecommerce Contract/Ecommerce.sol\":877:903  Product memory tempProduct */\n      tag_66\n      tag_67\n      jump\t// in\n    tag_66:\n        /* \"Ecommerce Contract/Ecommerce.sol\":931:937  _title */\n      dup4\n        /* \"Ecommerce Contract/Ecommerce.sol\":913:924  tempProduct */\n      dup2\n        /* \"Ecommerce Contract/Ecommerce.sol\":913:930  tempProduct.title */\n      0x00\n      add\n        /* \"Ecommerce Contract/Ecommerce.sol\":913:937  tempProduct.title=_title */\n      dup2\n      swap1\n      mstore\n      pop\n        /* \"Ecommerce Contract/Ecommerce.sol\":964:969  _desc */\n      dup3\n        /* \"Ecommerce Contract/Ecommerce.sol\":947:958  tempProduct */\n      dup2\n        /* \"Ecommerce Contract/Ecommerce.sol\":947:963  tempProduct.desc */\n      0x20\n      add\n        /* \"Ecommerce Contract/Ecommerce.sol\":947:969  tempProduct.desc=_desc */\n      dup2\n      swap1\n      mstore\n      pop\n        /* \"Ecommerce Contract/Ecommerce.sol\":1004:1010  10**18 */\n      0x0de0b6b3a7640000\n        /* \"Ecommerce Contract/Ecommerce.sol\":997:1003  _price */\n      dup3\n        /* \"Ecommerce Contract/Ecommerce.sol\":997:1010  _price*10**18 */\n      tag_68\n      swap2\n      swap1\n      tag_69\n      jump\t// in\n    tag_68:\n        /* \"Ecommerce Contract/Ecommerce.sol\":979:990  tempProduct */\n      dup2\n        /* \"Ecommerce Contract/Ecommerce.sol\":979:996  tempProduct.price */\n      0x80\n      add\n        /* \"Ecommerce Contract/Ecommerce.sol\":979:1010  tempProduct.price=_price*10**18 */\n      dup2\n      dup2\n      mstore\n      pop\n      pop\n        /* \"Ecommerce Contract/Ecommerce.sol\":1047:1057  msg.sender */\n      caller\n        /* \"Ecommerce Contract/Ecommerce.sol\":1020:1031  tempProduct */\n      dup2\n        /* \"Ecommerce Contract/Ecommerce.sol\":1020:1038  tempProduct.seller */\n      0x40\n      add\n        /* \"Ecommerce Contract/Ecommerce.sol\":1020:1058  tempProduct.seller=payable(msg.sender) */\n      swap1\n      0xffffffffffffffffffffffffffffffffffffffff\n      and\n      swap1\n      dup2\n      0xffffffffffffffffffffffffffffffffffffffff\n      and\n      dup2\n      mstore\n      pop\n      pop\n        /* \"Ecommerce Contract/Ecommerce.sol\":1090:1097  counter */\n      sload(0x00)\n        /* \"Ecommerce Contract/Ecommerce.sol\":1068:1079  tempProduct */\n      dup2\n        /* \"Ecommerce Contract/Ecommerce.sol\":1068:1089  tempProduct.productId */\n      0x60\n      add\n        /* \"Ecommerce Contract/Ecommerce.sol\":1068:1097  tempProduct.productId=counter */\n      dup2\n      dup2\n      mstore\n      pop\n      pop\n        /* \"Ecommerce Contract/Ecommerce.sol\":1107:1115  products */\n      0x01\n        /* \"Ecommerce Contract/Ecommerce.sol\":1121:1132  tempProduct */\n      dup2\n        /* \"Ecommerce Contract/Ecommerce.sol\":1107:1133  products.push(tempProduct) */\n      swap1\n      dup1\n      0x01\n      dup2\n      sload\n      add\n      dup1\n      dup3\n      sstore\n      dup1\n      swap2\n      pop\n      pop\n      0x01\n      swap1\n      sub\n      swap1\n      0x00\n      mstore\n      keccak256(0x00, 0x20)\n      swap1\n      0x06\n      mul\n      add\n      0x00\n      swap1\n      swap2\n      swap1\n      swap2\n      swap1\n      swap2\n      pop\n      0x00\n      dup3\n      add\n      mload\n      dup2\n      0x00\n      add\n      swap1\n      dup2\n      tag_71\n      swap2\n      swap1\n      tag_72\n      jump\t// in\n    tag_71:\n      pop\n      0x20\n      dup3\n      add\n      mload\n      dup2\n      0x01\n      add\n      swap1\n      dup2\n      tag_73\n      swap2\n      swap1\n      tag_72\n      jump\t// in\n    tag_73:\n      pop\n      0x40\n      dup3\n      add\n      mload\n      dup2\n      0x02\n      add\n      exp(0x0100, 0x00)\n      dup2\n      sload\n      dup2\n      0xffffffffffffffffffffffffffffffffffffffff\n      mul\n      not\n      and\n      swap1\n      dup4\n      0xffffffffffffffffffffffffffffffffffffffff\n      and\n      mul\n      or\n      swap1\n      sstore\n      pop\n      0x60\n      dup3\n      add\n      mload\n      dup2\n      0x03\n      add\n      sstore\n      0x80\n      dup3\n      add\n      mload\n      dup2\n      0x04\n      add\n      sstore\n      0xa0\n      dup3\n      add\n      mload\n      dup2\n      0x05\n      add\n      exp(0x0100, 0x00)\n      dup2\n      sload\n      dup2\n      0xffffffffffffffffffffffffffffffffffffffff\n      mul\n      not\n      and\n      swap1\n      dup4\n      0xffffffffffffffffffffffffffffffffffffffff\n      and\n      mul\n      or\n      swap1\n      sstore\n      pop\n      0xc0\n      dup3\n      add\n      mload\n      dup2\n      0x05\n      add\n      exp(0x0100, 0x14)\n      dup2\n      sload\n      dup2\n      0xff\n      mul\n      not\n      and\n      swap1\n      dup4\n      iszero\n      iszero\n      mul\n      or\n      swap1\n      sstore\n      pop\n      pop\n      pop\n        /* \"Ecommerce Contract/Ecommerce.sol\":1143:1150  counter */\n      0x00\n      dup1\n        /* \"Ecommerce Contract/Ecommerce.sol\":1143:1152  counter++ */\n      dup2\n      sload\n      dup1\n      swap3\n      swap2\n      swap1\n      tag_74\n      swap1\n      tag_75\n      jump\t// in\n    tag_74:\n      swap2\n      swap1\n      pop\n      sstore\n      pop\n        /* \"Ecommerce Contract/Ecommerce.sol\":1167:1218  registered(_title,tempProduct.productId,msg.sender) */\n      0x2f2d57060110e728629fcdcfd43a3b0f571b51ca1899668910d777e935601e3e\n        /* \"Ecommerce Contract/Ecommerce.sol\":1178:1184  _title */\n      dup5\n        /* \"Ecommerce Contract/Ecommerce.sol\":1185:1196  tempProduct */\n      dup3\n        /* \"Ecommerce Contract/Ecommerce.sol\":1185:1206  tempProduct.productId */\n      0x60\n      add\n      mload\n        /* \"Ecommerce Contract/Ecommerce.sol\":1207:1217  msg.sender */\n      caller\n        /* \"Ecommerce Contract/Ecommerce.sol\":1167:1218  registered(_title,tempProduct.productId,msg.sender) */\n      mload(0x40)\n      tag_76\n      swap4\n      swap3\n      swap2\n      swap1\n      tag_77\n      jump\t// in\n    tag_76:\n      mload(0x40)\n      dup1\n      swap2\n      sub\n      swap1\n      log1\n        /* \"Ecommerce Contract/Ecommerce.sol\":804:1226  {... */\n      pop\n        /* \"Ecommerce Contract/Ecommerce.sol\":705:1226  function registerProduct(string memory _title,string memory _desc,uint _price)public isNotDestroyed{... */\n      pop\n      pop\n      pop\n      jump\t// out\n        /* \"Ecommerce Contract/Ecommerce.sol\":300:325  Product[] public products */\n    tag_20:\n      0x01\n      dup2\n      dup2\n      sload\n      dup2\n      lt\n      tag_78\n      jumpi\n      0x00\n      dup1\n      revert\n    tag_78:\n      swap1\n      0x00\n      mstore\n      keccak256(0x00, 0x20)\n      swap1\n      0x06\n      mul\n      add\n      0x00\n      swap2\n      pop\n      swap1\n      pop\n      dup1\n      0x00\n      add\n      dup1\n      sload\n      tag_80\n      swap1\n      tag_81\n      jump\t// in\n    tag_80:\n      dup1\n      0x1f\n      add\n      0x20\n      dup1\n      swap2\n      div\n      mul\n      0x20\n      add\n      mload(0x40)\n      swap1\n      dup2\n      add\n      0x40\n      mstore\n      dup1\n      swap3\n      swap2\n      swap1\n      dup2\n      dup2\n      mstore\n      0x20\n      add\n      dup3\n      dup1\n      sload\n      tag_82\n      swap1\n      tag_81\n      jump\t// in\n    tag_82:\n      dup1\n      iszero\n      tag_83\n      jumpi\n      dup1\n      0x1f\n      lt\n      tag_84\n      jumpi\n      0x0100\n      dup1\n      dup4\n      sload\n      div\n      mul\n      dup4\n      mstore\n      swap2\n      0x20\n      add\n      swap2\n      jump(tag_83)\n    tag_84:\n      dup3\n      add\n      swap2\n      swap1\n      0x00\n      mstore\n      keccak256(0x00, 0x20)\n      swap1\n    tag_85:\n      dup2\n      sload\n      dup2\n      mstore\n      swap1\n      0x01\n      add\n      swap1\n      0x20\n      add\n      dup1\n      dup4\n      gt\n      tag_85\n      jumpi\n      dup3\n      swap1\n      sub\n      0x1f\n      and\n      dup3\n      add\n      swap2\n    tag_83:\n      pop\n      pop\n      pop\n      pop\n      pop\n      swap1\n      dup1\n      0x01\n      add\n      dup1\n      sload\n      tag_86\n      swap1\n      tag_81\n      jump\t// in\n    tag_86:\n      dup1\n      0x1f\n      add\n      0x20\n      dup1\n      swap2\n      div\n      mul\n      0x20\n      add\n      mload(0x40)\n      swap1\n      dup2\n      add\n      0x40\n      mstore\n      dup1\n      swap3\n      swap2\n      swap1\n      dup2\n      dup2\n      mstore\n      0x20\n      add\n      dup3\n      dup1\n      sload\n      tag_87\n      swap1\n      tag_81\n      jump\t// in\n    tag_87:\n      dup1\n      iszero\n      tag_88\n      jumpi\n      dup1\n      0x1f\n      lt\n      tag_89\n      jumpi\n      0x0100\n      dup1\n      dup4\n      sload\n      div\n      mul\n      dup4\n      mstore\n      swap2\n      0x20\n      add\n      swap2\n      jump(tag_88)\n    tag_89:\n      dup3\n      add\n      swap2\n      swap1\n      0x00\n      mstore\n      keccak256(0x00, 0x20)\n      swap1\n    tag_90:\n      dup2\n      sload\n      dup2\n      mstore\n      swap1\n      0x01\n      add\n      swap1\n      0x20\n      add\n      dup1\n      dup4\n      gt\n      tag_90\n      jumpi\n      dup3\n      swap1\n      sub\n      0x1f\n      and\n      dup3\n      add\n      swap2\n    tag_88:\n      pop\n      pop\n      pop\n      pop\n      pop\n      swap1\n      dup1\n      0x02\n      add\n      0x00\n      swap1\n      sload\n      swap1\n      0x0100\n      exp\n      swap1\n      div\n      0xffffffffffffffffffffffffffffffffffffffff\n      and\n      swap1\n      dup1\n      0x03\n      add\n      sload\n      swap1\n      dup1\n      0x04\n      add\n      sload\n      swap1\n      dup1\n      0x05\n      add\n      0x00\n      swap1\n      sload\n      swap1\n      0x0100\n      exp\n      swap1\n      div\n      0xffffffffffffffffffffffffffffffffffffffff\n      and\n      swap1\n      dup1\n      0x05\n      add\n      0x14\n      swap1\n      sload\n      swap1\n      0x0100\n      exp\n      swap1\n      div\n      0xff\n      and\n      swap1\n      pop\n      dup8\n      jump\t// out\n        /* \"Ecommerce Contract/Ecommerce.sol\":1887:2027  function destroy() public {... */\n    tag_25:\n        /* \"Ecommerce Contract/Ecommerce.sol\":1943:1950  manager */\n      0x02\n      0x00\n      swap1\n      sload\n      swap1\n      0x0100\n      exp\n      swap1\n      div\n      0xffffffffffffffffffffffffffffffffffffffff\n      and\n        /* \"Ecommerce Contract/Ecommerce.sol\":1931:1950  msg.sender==manager */\n      0xffffffffffffffffffffffffffffffffffffffff\n      and\n        /* \"Ecommerce Contract/Ecommerce.sol\":1931:1941  msg.sender */\n      caller\n        /* \"Ecommerce Contract/Ecommerce.sol\":1931:1950  msg.sender==manager */\n      0xffffffffffffffffffffffffffffffffffffffff\n      and\n      eq\n        /* \"Ecommerce Contract/Ecommerce.sol\":1923:1989  require(msg.sender==manager,\"only manager can call this function\") */\n      tag_92\n      jumpi\n      mload(0x40)\n      0x08c379a000000000000000000000000000000000000000000000000000000000\n      dup2\n      mstore\n      0x04\n      add\n      tag_93\n      swap1\n      tag_94\n      jump\t// in\n    tag_93:\n      mload(0x40)\n      dup1\n      swap2\n      sub\n      swap1\n      revert\n    tag_92:\n        /* \"Ecommerce Contract/Ecommerce.sol\":2012:2019  manager */\n      0x02\n      0x00\n      swap1\n      sload\n      swap1\n      0x0100\n      exp\n      swap1\n      div\n      0xffffffffffffffffffffffffffffffffffffffff\n      and\n        /* \"Ecommerce Contract/Ecommerce.sol\":1999:2020  selfdestruct(manager) */\n      0xffffffffffffffffffffffffffffffffffffffff\n      and\n      selfdestruct\n        /* \"Ecommerce Contract/Ecommerce.sol\":1231:1568  function buy(uint _productId) payable public isNotDestroyed{... */\n    tag_28:\n        /* \"Ecommerce Contract/Ecommerce.sol\":430:439  destroyed */\n      0x02\n      0x14\n      swap1\n      sload\n      swap1\n      0x0100\n      exp\n      swap1\n      div\n      0xff\n      and\n        /* \"Ecommerce Contract/Ecommerce.sol\":429:439  !destroyed */\n      iszero\n        /* \"Ecommerce Contract/Ecommerce.sol\":421:466  require(!destroyed,\"Contract does not exist\") */\n      tag_96\n      jumpi\n      mload(0x40)\n      0x08c379a000000000000000000000000000000000000000000000000000000000\n      dup2\n      mstore\n      0x04\n      add\n      tag_97\n      swap1\n      tag_32\n      jump\t// in\n    tag_97:\n      mload(0x40)\n      dup1\n      swap2\n      sub\n      swap1\n      revert\n    tag_96:\n        /* \"Ecommerce Contract/Ecommerce.sol\":1338:1347  msg.value */\n      callvalue\n        /* \"Ecommerce Contract/Ecommerce.sol\":1308:1316  products */\n      0x01\n        /* \"Ecommerce Contract/Ecommerce.sol\":1328:1329  1 */\n      dup1\n        /* \"Ecommerce Contract/Ecommerce.sol\":1317:1327  _productId */\n      dup4\n        /* \"Ecommerce Contract/Ecommerce.sol\":1317:1329  _productId-1 */\n      tag_99\n      swap2\n      swap1\n      tag_35\n      jump\t// in\n    tag_99:\n        /* \"Ecommerce Contract/Ecommerce.sol\":1308:1330  products[_productId-1] */\n      dup2\n      sload\n      dup2\n      lt\n      tag_100\n      jumpi\n      tag_101\n      tag_38\n      jump\t// in\n    tag_101:\n    tag_100:\n      swap1\n      0x00\n      mstore\n      keccak256(0x00, 0x20)\n      swap1\n      0x06\n      mul\n      add\n        /* \"Ecommerce Contract/Ecommerce.sol\":1308:1336  products[_productId-1].price */\n      0x04\n      add\n      sload\n        /* \"Ecommerce Contract/Ecommerce.sol\":1308:1347  products[_productId-1].price==msg.value */\n      eq\n        /* \"Ecommerce Contract/Ecommerce.sol\":1300:1377  require(products[_productId-1].price==msg.value,\"Please Pay the exact price\") */\n      tag_103\n      jumpi\n      mload(0x40)\n      0x08c379a000000000000000000000000000000000000000000000000000000000\n      dup2\n      mstore\n      0x04\n      add\n      tag_104\n      swap1\n      tag_105\n      jump\t// in\n    tag_104:\n      mload(0x40)\n      dup1\n      swap2\n      sub\n      swap1\n      revert\n    tag_103:\n        /* \"Ecommerce Contract/Ecommerce.sol\":1426:1436  msg.sender */\n      caller\n        /* \"Ecommerce Contract/Ecommerce.sol\":1395:1436  products[_productId-1].seller!=msg.sender */\n      0xffffffffffffffffffffffffffffffffffffffff\n      and\n        /* \"Ecommerce Contract/Ecommerce.sol\":1395:1403  products */\n      0x01\n        /* \"Ecommerce Contract/Ecommerce.sol\":1415:1416  1 */\n      dup1\n        /* \"Ecommerce Contract/Ecommerce.sol\":1404:1414  _productId */\n      dup4\n        /* \"Ecommerce Contract/Ecommerce.sol\":1404:1416  _productId-1 */\n      tag_106\n      swap2\n      swap1\n      tag_35\n      jump\t// in\n    tag_106:\n        /* \"Ecommerce Contract/Ecommerce.sol\":1395:1417  products[_productId-1] */\n      dup2\n      sload\n      dup2\n      lt\n      tag_107\n      jumpi\n      tag_108\n      tag_38\n      jump\t// in\n    tag_108:\n    tag_107:\n      swap1\n      0x00\n      mstore\n      keccak256(0x00, 0x20)\n      swap1\n      0x06\n      mul\n      add\n        /* \"Ecommerce Contract/Ecommerce.sol\":1395:1424  products[_productId-1].seller */\n      0x02\n      add\n      0x00\n      swap1\n      sload\n      swap1\n      0x0100\n      exp\n      swap1\n      div\n      0xffffffffffffffffffffffffffffffffffffffff\n      and\n        /* \"Ecommerce Contract/Ecommerce.sol\":1395:1436  products[_productId-1].seller!=msg.sender */\n      0xffffffffffffffffffffffffffffffffffffffff\n      and\n      sub\n        /* \"Ecommerce Contract/Ecommerce.sol\":1387:1466  require(products[_productId-1].seller!=msg.sender,\"Seller cannot be the buyer\") */\n      tag_110\n      jumpi\n      mload(0x40)\n      0x08c379a000000000000000000000000000000000000000000000000000000000\n      dup2\n      mstore\n      0x04\n      add\n      tag_111\n      swap1\n      tag_112\n      jump\t// in\n    tag_111:\n      mload(0x40)\n      dup1\n      swap2\n      sub\n      swap1\n      revert\n    tag_110:\n        /* \"Ecommerce Contract/Ecommerce.sol\":1506:1516  msg.sender */\n      caller\n        /* \"Ecommerce Contract/Ecommerce.sol\":1476:1516  products[_productId-1].buyer==msg.sender */\n      0xffffffffffffffffffffffffffffffffffffffff\n      and\n        /* \"Ecommerce Contract/Ecommerce.sol\":1476:1484  products */\n      0x01\n        /* \"Ecommerce Contract/Ecommerce.sol\":1496:1497  1 */\n      dup1\n        /* \"Ecommerce Contract/Ecommerce.sol\":1485:1495  _productId */\n      dup4\n        /* \"Ecommerce Contract/Ecommerce.sol\":1485:1497  _productId-1 */\n      tag_113\n      swap2\n      swap1\n      tag_35\n      jump\t// in\n    tag_113:\n        /* \"Ecommerce Contract/Ecommerce.sol\":1476:1498  products[_productId-1] */\n      dup2\n      sload\n      dup2\n      lt\n      tag_114\n      jumpi\n      tag_115\n      tag_38\n      jump\t// in\n    tag_115:\n    tag_114:\n      swap1\n      0x00\n      mstore\n      keccak256(0x00, 0x20)\n      swap1\n      0x06\n      mul\n      add\n        /* \"Ecommerce Contract/Ecommerce.sol\":1476:1504  products[_productId-1].buyer */\n      0x05\n      add\n      0x00\n      swap1\n      sload\n      swap1\n      0x0100\n      exp\n      swap1\n      pop\n      pop\n        /* \"Ecommerce Contract/Ecommerce.sol\":1476:1516  products[_productId-1].buyer==msg.sender */\n      pop\n        /* \"Ecommerce Contract/Ecommerce.sol\":1531:1560  bought(_productId,msg.sender) */\n      0x2c9b5e9655a41ab13c5183c231239df125ecbd546a947624c913cfd43094906e\n        /* \"Ecommerce Contract/Ecommerce.sol\":1538:1548  _productId */\n      dup2\n        /* \"Ecommerce Contract/Ecommerce.sol\":1549:1559  msg.sender */\n      caller\n        /* \"Ecommerce Contract/Ecommerce.sol\":1531:1560  bought(_productId,msg.sender) */\n      mload(0x40)\n      tag_117\n      swap3\n      swap2\n      swap1\n      tag_118\n      jump\t// in\n    tag_117:\n      mload(0x40)\n      dup1\n      swap2\n      sub\n      swap1\n      log1\n        /* \"Ecommerce Contract/Ecommerce.sol\":1231:1568  function buy(uint _productId) payable public isNotDestroyed{... */\n      pop\n      jump\t// out\n    tag_67:\n      mload(0x40)\n      dup1\n      0xe0\n      add\n      0x40\n      mstore\n      dup1\n      0x60\n      dup2\n      mstore\n      0x20\n      add\n      0x60\n      dup2\n      mstore\n      0x20\n      add\n      and(0xffffffffffffffffffffffffffffffffffffffff, 0x00)\n      dup2\n      mstore\n      0x20\n      add\n      0x00\n      dup2\n      mstore\n      0x20\n      add\n      0x00\n      dup2\n      mstore\n      0x20\n      add\n      and(0xffffffffffffffffffffffffffffffffffffffff, 0x00)\n      dup2\n      mstore\n      0x20\n      add\n      iszero(iszero(0x00))\n      dup2\n      mstore\n      pop\n      swap1\n      jump\t// out\n        /* \"#utility.yul\":7:82   */\n    tag_119:\n        /* \"#utility.yul\":40:46   */\n      0x00\n        /* \"#utility.yul\":73:75   */\n      0x40\n        /* \"#utility.yul\":67:76   */\n      mload\n        /* \"#utility.yul\":57:76   */\n      swap1\n      pop\n        /* \"#utility.yul\":7:82   */\n      swap1\n      jump\t// out\n        /* \"#utility.yul\":88:205   */\n    tag_120:\n        /* \"#utility.yul\":197:198   */\n      0x00\n        /* \"#utility.yul\":194:195   */\n      dup1\n        /* \"#utility.yul\":187:199   */\n      revert\n        /* \"#utility.yul\":211:328   */\n    tag_121:\n        /* \"#utility.yul\":320:321   */\n      0x00\n        /* \"#utility.yul\":317:318   */\n      dup1\n        /* \"#utility.yul\":310:322   */\n      revert\n        /* \"#utility.yul\":334:411   */\n    tag_122:\n        /* \"#utility.yul\":371:378   */\n      0x00\n        /* \"#utility.yul\":400:405   */\n      dup2\n        /* \"#utility.yul\":389:405   */\n      swap1\n      pop\n        /* \"#utility.yul\":334:411   */\n      swap2\n      swap1\n      pop\n      jump\t// out\n        /* \"#utility.yul\":417:539   */\n    tag_123:\n        /* \"#utility.yul\":490:514   */\n      tag_182\n        /* \"#utility.yul\":508:513   */\n      dup2\n        /* \"#utility.yul\":490:514   */\n      tag_122\n      jump\t// in\n    tag_182:\n        /* \"#utility.yul\":483:488   */\n      dup2\n        /* \"#utility.yul\":480:515   */\n      eq\n        /* \"#utility.yul\":470:533   */\n      tag_183\n      jumpi\n        /* \"#utility.yul\":529:530   */\n      0x00\n        /* \"#utility.yul\":526:527   */\n      dup1\n        /* \"#utility.yul\":519:531   */\n      revert\n        /* \"#utility.yul\":470:533   */\n    tag_183:\n        /* \"#utility.yul\":417:539   */\n      pop\n      jump\t// out\n        /* \"#utility.yul\":545:684   */\n    tag_124:\n        /* \"#utility.yul\":591:596   */\n      0x00\n        /* \"#utility.yul\":629:635   */\n      dup2\n        /* \"#utility.yul\":616:636   */\n      calldataload\n        /* \"#utility.yul\":607:636   */\n      swap1\n      pop\n        /* \"#utility.yul\":645:678   */\n      tag_185\n        /* \"#utility.yul\":672:677   */\n      dup2\n        /* \"#utility.yul\":645:678   */\n      tag_123\n      jump\t// in\n    tag_185:\n        /* \"#utility.yul\":545:684   */\n      swap3\n      swap2\n      pop\n      pop\n      jump\t// out\n        /* \"#utility.yul\":690:1019   */\n    tag_10:\n        /* \"#utility.yul\":749:755   */\n      0x00\n        /* \"#utility.yul\":798:800   */\n      0x20\n        /* \"#utility.yul\":786:795   */\n      dup3\n        /* \"#utility.yul\":777:784   */\n      dup5\n        /* \"#utility.yul\":773:796   */\n      sub\n        /* \"#utility.yul\":769:801   */\n      slt\n        /* \"#utility.yul\":766:885   */\n      iszero\n      tag_187\n      jumpi\n        /* \"#utility.yul\":804:883   */\n      tag_188\n      tag_120\n      jump\t// in\n    tag_188:\n        /* \"#utility.yul\":766:885   */\n    tag_187:\n        /* \"#utility.yul\":924:925   */\n      0x00\n        /* \"#utility.yul\":949:1002   */\n      tag_189\n        /* \"#utility.yul\":994:1001   */\n      dup5\n        /* \"#utility.yul\":985:991   */\n      dup3\n        /* \"#utility.yul\":974:983   */\n      dup6\n        /* \"#utility.yul\":970:992   */\n      add\n        /* \"#utility.yul\":949:1002   */\n      tag_124\n      jump\t// in\n    tag_189:\n        /* \"#utility.yul\":939:1002   */\n      swap2\n      pop\n        /* \"#utility.yul\":895:1012   */\n      pop\n        /* \"#utility.yul\":690:1019   */\n      swap3\n      swap2\n      pop\n      pop\n      jump\t// out\n        /* \"#utility.yul\":1025:1142   */\n    tag_125:\n        /* \"#utility.yul\":1134:1135   */\n      0x00\n        /* \"#utility.yul\":1131:1132   */\n      dup1\n        /* \"#utility.yul\":1124:1136   */\n      revert\n        /* \"#utility.yul\":1148:1265   */\n    tag_126:\n        /* \"#utility.yul\":1257:1258   */\n      0x00\n        /* \"#utility.yul\":1254:1255   */\n      dup1\n        /* \"#utility.yul\":1247:1259   */\n      revert\n        /* \"#utility.yul\":1271:1373   */\n    tag_127:\n        /* \"#utility.yul\":1312:1318   */\n      0x00\n        /* \"#utility.yul\":1363:1365   */\n      0x1f\n        /* \"#utility.yul\":1359:1366   */\n      not\n        /* \"#utility.yul\":1354:1356   */\n      0x1f\n        /* \"#utility.yul\":1347:1352   */\n      dup4\n        /* \"#utility.yul\":1343:1357   */\n      add\n        /* \"#utility.yul\":1339:1367   */\n      and\n        /* \"#utility.yul\":1329:1367   */\n      swap1\n      pop\n        /* \"#utility.yul\":1271:1373   */\n      swap2\n      swap1\n      pop\n      jump\t// out\n        /* \"#utility.yul\":1379:1559   */\n    tag_128:\n        /* \"#utility.yul\":1427:1504   */\n      0x4e487b7100000000000000000000000000000000000000000000000000000000\n        /* \"#utility.yul\":1424:1425   */\n      0x00\n        /* \"#utility.yul\":1417:1505   */\n      mstore\n        /* \"#utility.yul\":1524:1528   */\n      0x41\n        /* \"#utility.yul\":1521:1522   */\n      0x04\n        /* \"#utility.yul\":1514:1529   */\n      mstore\n        /* \"#utility.yul\":1548:1552   */\n      0x24\n        /* \"#utility.yul\":1545:1546   */\n      0x00\n        /* \"#utility.yul\":1538:1553   */\n      revert\n        /* \"#utility.yul\":1565:1846   */\n    tag_129:\n        /* \"#utility.yul\":1648:1675   */\n      tag_195\n        /* \"#utility.yul\":1670:1674   */\n      dup3\n        /* \"#utility.yul\":1648:1675   */\n      tag_127\n      jump\t// in\n    tag_195:\n        /* \"#utility.yul\":1640:1646   */\n      dup2\n        /* \"#utility.yul\":1636:1676   */\n      add\n        /* \"#utility.yul\":1778:1784   */\n      dup2\n        /* \"#utility.yul\":1766:1776   */\n      dup2\n        /* \"#utility.yul\":1763:1785   */\n      lt\n        /* \"#utility.yul\":1742:1760   */\n      0xffffffffffffffff\n        /* \"#utility.yul\":1730:1740   */\n      dup3\n        /* \"#utility.yul\":1727:1761   */\n      gt\n        /* \"#utility.yul\":1724:1786   */\n      or\n        /* \"#utility.yul\":1721:1809   */\n      iszero\n      tag_196\n      jumpi\n        /* \"#utility.yul\":1789:1807   */\n      tag_197\n      tag_128\n      jump\t// in\n    tag_197:\n        /* \"#utility.yul\":1721:1809   */\n    tag_196:\n        /* \"#utility.yul\":1829:1839   */\n      dup1\n        /* \"#utility.yul\":1825:1827   */\n      0x40\n        /* \"#utility.yul\":1818:1840   */\n      mstore\n        /* \"#utility.yul\":1608:1846   */\n      pop\n        /* \"#utility.yul\":1565:1846   */\n      pop\n      pop\n      jump\t// out\n        /* \"#utility.yul\":1852:1981   */\n    tag_130:\n        /* \"#utility.yul\":1886:1892   */\n      0x00\n        /* \"#utility.yul\":1913:1933   */\n      tag_199\n      tag_119\n      jump\t// in\n    tag_199:\n        /* \"#utility.yul\":1903:1933   */\n      swap1\n      pop\n        /* \"#utility.yul\":1942:1975   */\n      tag_200\n        /* \"#utility.yul\":1970:1974   */\n      dup3\n        /* \"#utility.yul\":1962:1968   */\n      dup3\n        /* \"#utility.yul\":1942:1975   */\n      tag_129\n      jump\t// in\n    tag_200:\n        /* \"#utility.yul\":1852:1981   */\n      swap2\n      swap1\n      pop\n      jump\t// out\n        /* \"#utility.yul\":1987:2295   */\n    tag_131:\n        /* \"#utility.yul\":2049:2053   */\n      0x00\n        /* \"#utility.yul\":2139:2157   */\n      0xffffffffffffffff\n        /* \"#utility.yul\":2131:2137   */\n      dup3\n        /* \"#utility.yul\":2128:2158   */\n      gt\n        /* \"#utility.yul\":2125:2181   */\n      iszero\n      tag_202\n      jumpi\n        /* \"#utility.yul\":2161:2179   */\n      tag_203\n      tag_128\n      jump\t// in\n    tag_203:\n        /* \"#utility.yul\":2125:2181   */\n    tag_202:\n        /* \"#utility.yul\":2199:2228   */\n      tag_204\n        /* \"#utility.yul\":2221:2227   */\n      dup3\n        /* \"#utility.yul\":2199:2228   */\n      tag_127\n      jump\t// in\n    tag_204:\n        /* \"#utility.yul\":2191:2228   */\n      swap1\n      pop\n        /* \"#utility.yul\":2283:2287   */\n      0x20\n        /* \"#utility.yul\":2277:2281   */\n      dup2\n        /* \"#utility.yul\":2273:2288   */\n      add\n        /* \"#utility.yul\":2265:2288   */\n      swap1\n      pop\n        /* \"#utility.yul\":1987:2295   */\n      swap2\n      swap1\n      pop\n      jump\t// out\n        /* \"#utility.yul\":2301:2447   */\n    tag_132:\n        /* \"#utility.yul\":2398:2404   */\n      dup3\n        /* \"#utility.yul\":2393:2396   */\n      dup2\n        /* \"#utility.yul\":2388:2391   */\n      dup4\n        /* \"#utility.yul\":2375:2405   */\n      calldatacopy\n        /* \"#utility.yul\":2439:2440   */\n      0x00\n        /* \"#utility.yul\":2430:2436   */\n      dup4\n        /* \"#utility.yul\":2425:2428   */\n      dup4\n        /* \"#utility.yul\":2421:2437   */\n      add\n        /* \"#utility.yul\":2414:2441   */\n      mstore\n        /* \"#utility.yul\":2301:2447   */\n      pop\n      pop\n      pop\n      jump\t// out\n        /* \"#utility.yul\":2453:2878   */\n    tag_133:\n        /* \"#utility.yul\":2531:2536   */\n      0x00\n        /* \"#utility.yul\":2556:2622   */\n      tag_207\n        /* \"#utility.yul\":2572:2621   */\n      tag_208\n        /* \"#utility.yul\":2614:2620   */\n      dup5\n        /* \"#utility.yul\":2572:2621   */\n      tag_131\n      jump\t// in\n    tag_208:\n        /* \"#utility.yul\":2556:2622   */\n      tag_130\n      jump\t// in\n    tag_207:\n        /* \"#utility.yul\":2547:2622   */\n      swap1\n      pop\n        /* \"#utility.yul\":2645:2651   */\n      dup3\n        /* \"#utility.yul\":2638:2643   */\n      dup2\n        /* \"#utility.yul\":2631:2652   */\n      mstore\n        /* \"#utility.yul\":2683:2687   */\n      0x20\n        /* \"#utility.yul\":2676:2681   */\n      dup2\n        /* \"#utility.yul\":2672:2688   */\n      add\n        /* \"#utility.yul\":2721:2724   */\n      dup5\n        /* \"#utility.yul\":2712:2718   */\n      dup5\n        /* \"#utility.yul\":2707:2710   */\n      dup5\n        /* \"#utility.yul\":2703:2719   */\n      add\n        /* \"#utility.yul\":2700:2725   */\n      gt\n        /* \"#utility.yul\":2697:2809   */\n      iszero\n      tag_209\n      jumpi\n        /* \"#utility.yul\":2728:2807   */\n      tag_210\n      tag_126\n      jump\t// in\n    tag_210:\n        /* \"#utility.yul\":2697:2809   */\n    tag_209:\n        /* \"#utility.yul\":2818:2872   */\n      tag_211\n        /* \"#utility.yul\":2865:2871   */\n      dup5\n        /* \"#utility.yul\":2860:2863   */\n      dup3\n        /* \"#utility.yul\":2855:2858   */\n      dup6\n        /* \"#utility.yul\":2818:2872   */\n      tag_132\n      jump\t// in\n    tag_211:\n        /* \"#utility.yul\":2537:2878   */\n      pop\n        /* \"#utility.yul\":2453:2878   */\n      swap4\n      swap3\n      pop\n      pop\n      pop\n      jump\t// out\n        /* \"#utility.yul\":2898:3238   */\n    tag_134:\n        /* \"#utility.yul\":2954:2959   */\n      0x00\n        /* \"#utility.yul\":3003:3006   */\n      dup3\n        /* \"#utility.yul\":2996:3000   */\n      0x1f\n        /* \"#utility.yul\":2988:2994   */\n      dup4\n        /* \"#utility.yul\":2984:3001   */\n      add\n        /* \"#utility.yul\":2980:3007   */\n      slt\n        /* \"#utility.yul\":2970:3092   */\n      tag_213\n      jumpi\n        /* \"#utility.yul\":3011:3090   */\n      tag_214\n      tag_125\n      jump\t// in\n    tag_214:\n        /* \"#utility.yul\":2970:3092   */\n    tag_213:\n        /* \"#utility.yul\":3128:3134   */\n      dup2\n        /* \"#utility.yul\":3115:3135   */\n      calldataload\n        /* \"#utility.yul\":3153:3232   */\n      tag_215\n        /* \"#utility.yul\":3228:3231   */\n      dup5\n        /* \"#utility.yul\":3220:3226   */\n      dup3\n        /* \"#utility.yul\":3213:3217   */\n      0x20\n        /* \"#utility.yul\":3205:3211   */\n      dup7\n        /* \"#utility.yul\":3201:3218   */\n      add\n        /* \"#utility.yul\":3153:3232   */\n      tag_133\n      jump\t// in\n    tag_215:\n        /* \"#utility.yul\":3144:3232   */\n      swap2\n      pop\n        /* \"#utility.yul\":2960:3238   */\n      pop\n        /* \"#utility.yul\":2898:3238   */\n      swap3\n      swap2\n      pop\n      pop\n      jump\t// out\n        /* \"#utility.yul\":3244:4223   */\n    tag_15:\n        /* \"#utility.yul\":3341:3347   */\n      0x00\n        /* \"#utility.yul\":3349:3355   */\n      dup1\n        /* \"#utility.yul\":3357:3363   */\n      0x00\n        /* \"#utility.yul\":3406:3408   */\n      0x60\n        /* \"#utility.yul\":3394:3403   */\n      dup5\n        /* \"#utility.yul\":3385:3392   */\n      dup7\n        /* \"#utility.yul\":3381:3404   */\n      sub\n        /* \"#utility.yul\":3377:3409   */\n      slt\n        /* \"#utility.yul\":3374:3493   */\n      iszero\n      tag_217\n      jumpi\n        /* \"#utility.yul\":3412:3491   */\n      tag_218\n      tag_120\n      jump\t// in\n    tag_218:\n        /* \"#utility.yul\":3374:3493   */\n    tag_217:\n        /* \"#utility.yul\":3560:3561   */\n      0x00\n        /* \"#utility.yul\":3549:3558   */\n      dup5\n        /* \"#utility.yul\":3545:3562   */\n      add\n        /* \"#utility.yul\":3532:3563   */\n      calldataload\n        /* \"#utility.yul\":3590:3608   */\n      0xffffffffffffffff\n        /* \"#utility.yul\":3582:3588   */\n      dup2\n        /* \"#utility.yul\":3579:3609   */\n      gt\n        /* \"#utility.yul\":3576:3693   */\n      iszero\n      tag_219\n      jumpi\n        /* \"#utility.yul\":3612:3691   */\n      tag_220\n      tag_121\n      jump\t// in\n    tag_220:\n        /* \"#utility.yul\":3576:3693   */\n    tag_219:\n        /* \"#utility.yul\":3717:3780   */\n      tag_221\n        /* \"#utility.yul\":3772:3779   */\n      dup7\n        /* \"#utility.yul\":3763:3769   */\n      dup3\n        /* \"#utility.yul\":3752:3761   */\n      dup8\n        /* \"#utility.yul\":3748:3770   */\n      add\n        /* \"#utility.yul\":3717:3780   */\n      tag_134\n      jump\t// in\n    tag_221:\n        /* \"#utility.yul\":3707:3780   */\n      swap4\n      pop\n        /* \"#utility.yul\":3503:3790   */\n      pop\n        /* \"#utility.yul\":3857:3859   */\n      0x20\n        /* \"#utility.yul\":3846:3855   */\n      dup5\n        /* \"#utility.yul\":3842:3860   */\n      add\n        /* \"#utility.yul\":3829:3861   */\n      calldataload\n        /* \"#utility.yul\":3888:3906   */\n      0xffffffffffffffff\n        /* \"#utility.yul\":3880:3886   */\n      dup2\n        /* \"#utility.yul\":3877:3907   */\n      gt\n        /* \"#utility.yul\":3874:3991   */\n      iszero\n      tag_222\n      jumpi\n        /* \"#utility.yul\":3910:3989   */\n      tag_223\n      tag_121\n      jump\t// in\n    tag_223:\n        /* \"#utility.yul\":3874:3991   */\n    tag_222:\n        /* \"#utility.yul\":4015:4078   */\n      tag_224\n        /* \"#utility.yul\":4070:4077   */\n      dup7\n        /* \"#utility.yul\":4061:4067   */\n      dup3\n        /* \"#utility.yul\":4050:4059   */\n      dup8\n        /* \"#utility.yul\":4046:4068   */\n      add\n        /* \"#utility.yul\":4015:4078   */\n      tag_134\n      jump\t// in\n    tag_224:\n        /* \"#utility.yul\":4005:4078   */\n      swap3\n      pop\n        /* \"#utility.yul\":3800:4088   */\n      pop\n        /* \"#utility.yul\":4127:4129   */\n      0x40\n        /* \"#utility.yul\":4153:4206   */\n      tag_225\n        /* \"#utility.yul\":4198:4205   */\n      dup7\n        /* \"#utility.yul\":4189:4195   */\n      dup3\n        /* \"#utility.yul\":4178:4187   */\n      dup8\n        /* \"#utility.yul\":4174:4196   */\n      add\n        /* \"#utility.yul\":4153:4206   */\n      tag_124\n      jump\t// in\n    tag_225:\n        /* \"#utility.yul\":4143:4206   */\n      swap2\n      pop\n        /* \"#utility.yul\":4098:4216   */\n      pop\n        /* \"#utility.yul\":3244:4223   */\n      swap3\n      pop\n      swap3\n      pop\n      swap3\n      jump\t// out\n        /* \"#utility.yul\":4229:4328   */\n    tag_135:\n        /* \"#utility.yul\":4281:4287   */\n      0x00\n        /* \"#utility.yul\":4315:4320   */\n      dup2\n        /* \"#utility.yul\":4309:4321   */\n      mload\n        /* \"#utility.yul\":4299:4321   */\n      swap1\n      pop\n        /* \"#utility.yul\":4229:4328   */\n      swap2\n      swap1\n      pop\n      jump\t// out\n        /* \"#utility.yul\":4334:4503   */\n    tag_136:\n        /* \"#utility.yul\":4418:4429   */\n      0x00\n        /* \"#utility.yul\":4452:4458   */\n      dup3\n        /* \"#utility.yul\":4447:4450   */\n      dup3\n        /* \"#utility.yul\":4440:4459   */\n      mstore\n        /* \"#utility.yul\":4492:4496   */\n      0x20\n        /* \"#utility.yul\":4487:4490   */\n      dup3\n        /* \"#utility.yul\":4483:4497   */\n      add\n        /* \"#utility.yul\":4468:4497   */\n      swap1\n      pop\n        /* \"#utility.yul\":4334:4503   */\n      swap3\n      swap2\n      pop\n      pop\n      jump\t// out\n        /* \"#utility.yul\":4509:4755   */\n    tag_137:\n        /* \"#utility.yul\":4590:4591   */\n      0x00\n        /* \"#utility.yul\":4600:4713   */\n    tag_229:\n        /* \"#utility.yul\":4614:4620   */\n      dup4\n        /* \"#utility.yul\":4611:4612   */\n      dup2\n        /* \"#utility.yul\":4608:4621   */\n      lt\n        /* \"#utility.yul\":4600:4713   */\n      iszero\n      tag_231\n      jumpi\n        /* \"#utility.yul\":4699:4700   */\n      dup1\n        /* \"#utility.yul\":4694:4697   */\n      dup3\n        /* \"#utility.yul\":4690:4701   */\n      add\n        /* \"#utility.yul\":4684:4702   */\n      mload\n        /* \"#utility.yul\":4680:4681   */\n      dup2\n        /* \"#utility.yul\":4675:4678   */\n      dup5\n        /* \"#utility.yul\":4671:4682   */\n      add\n        /* \"#utility.yul\":4664:4703   */\n      mstore\n        /* \"#utility.yul\":4636:4638   */\n      0x20\n        /* \"#utility.yul\":4633:4634   */\n      dup2\n        /* \"#utility.yul\":4629:4639   */\n      add\n        /* \"#utility.yul\":4624:4639   */\n      swap1\n      pop\n        /* \"#utility.yul\":4600:4713   */\n      jump(tag_229)\n    tag_231:\n        /* \"#utility.yul\":4747:4748   */\n      0x00\n        /* \"#utility.yul\":4738:4744   */\n      dup5\n        /* \"#utility.yul\":4733:4736   */\n      dup5\n        /* \"#utility.yul\":4729:4745   */\n      add\n        /* \"#utility.yul\":4722:4749   */\n      mstore\n        /* \"#utility.yul\":4571:4755   */\n      pop\n        /* \"#utility.yul\":4509:4755   */\n      pop\n      pop\n      pop\n      jump\t// out\n        /* \"#utility.yul\":4761:5138   */\n    tag_138:\n        /* \"#utility.yul\":4849:4852   */\n      0x00\n        /* \"#utility.yul\":4877:4916   */\n      tag_233\n        /* \"#utility.yul\":4910:4915   */\n      dup3\n        /* \"#utility.yul\":4877:4916   */\n      tag_135\n      jump\t// in\n    tag_233:\n        /* \"#utility.yul\":4932:5003   */\n      tag_234\n        /* \"#utility.yul\":4996:5002   */\n      dup2\n        /* \"#utility.yul\":4991:4994   */\n      dup6\n        /* \"#utility.yul\":4932:5003   */\n      tag_136\n      jump\t// in\n    tag_234:\n        /* \"#utility.yul\":4925:5003   */\n      swap4\n      pop\n        /* \"#utility.yul\":5012:5077   */\n      tag_235\n        /* \"#utility.yul\":5070:5076   */\n      dup2\n        /* \"#utility.yul\":5065:5068   */\n      dup6\n        /* \"#utility.yul\":5058:5062   */\n      0x20\n        /* \"#utility.yul\":5051:5056   */\n      dup7\n        /* \"#utility.yul\":5047:5063   */\n      add\n        /* \"#utility.yul\":5012:5077   */\n      tag_137\n      jump\t// in\n    tag_235:\n        /* \"#utility.yul\":5102:5131   */\n      tag_236\n        /* \"#utility.yul\":5124:5130   */\n      dup2\n        /* \"#utility.yul\":5102:5131   */\n      tag_127\n      jump\t// in\n    tag_236:\n        /* \"#utility.yul\":5097:5100   */\n      dup5\n        /* \"#utility.yul\":5093:5132   */\n      add\n        /* \"#utility.yul\":5086:5132   */\n      swap2\n      pop\n        /* \"#utility.yul\":4853:5138   */\n      pop\n        /* \"#utility.yul\":4761:5138   */\n      swap3\n      swap2\n      pop\n      pop\n      jump\t// out\n        /* \"#utility.yul\":5144:5270   */\n    tag_139:\n        /* \"#utility.yul\":5181:5188   */\n      0x00\n        /* \"#utility.yul\":5221:5263   */\n      0xffffffffffffffffffffffffffffffffffffffff\n        /* \"#utility.yul\":5214:5219   */\n      dup3\n        /* \"#utility.yul\":5210:5264   */\n      and\n        /* \"#utility.yul\":5199:5264   */\n      swap1\n      pop\n        /* \"#utility.yul\":5144:5270   */\n      swap2\n      swap1\n      pop\n      jump\t// out\n        /* \"#utility.yul\":5276:5380   */\n    tag_140:\n        /* \"#utility.yul\":5321:5328   */\n      0x00\n        /* \"#utility.yul\":5350:5374   */\n      tag_239\n        /* \"#utility.yul\":5368:5373   */\n      dup3\n        /* \"#utility.yul\":5350:5374   */\n      tag_139\n      jump\t// in\n    tag_239:\n        /* \"#utility.yul\":5339:5374   */\n      swap1\n      pop\n        /* \"#utility.yul\":5276:5380   */\n      swap2\n      swap1\n      pop\n      jump\t// out\n        /* \"#utility.yul\":5386:5528   */\n    tag_141:\n        /* \"#utility.yul\":5489:5521   */\n      tag_241\n        /* \"#utility.yul\":5515:5520   */\n      dup2\n        /* \"#utility.yul\":5489:5521   */\n      tag_140\n      jump\t// in\n    tag_241:\n        /* \"#utility.yul\":5484:5487   */\n      dup3\n        /* \"#utility.yul\":5477:5522   */\n      mstore\n        /* \"#utility.yul\":5386:5528   */\n      pop\n      pop\n      jump\t// out\n        /* \"#utility.yul\":5534:5652   */\n    tag_142:\n        /* \"#utility.yul\":5621:5645   */\n      tag_243\n        /* \"#utility.yul\":5639:5644   */\n      dup2\n        /* \"#utility.yul\":5621:5645   */\n      tag_122\n      jump\t// in\n    tag_243:\n        /* \"#utility.yul\":5616:5619   */\n      dup3\n        /* \"#utility.yul\":5609:5646   */\n      mstore\n        /* \"#utility.yul\":5534:5652   */\n      pop\n      pop\n      jump\t// out\n        /* \"#utility.yul\":5658:5754   */\n    tag_143:\n        /* \"#utility.yul\":5695:5702   */\n      0x00\n        /* \"#utility.yul\":5724:5748   */\n      tag_245\n        /* \"#utility.yul\":5742:5747   */\n      dup3\n        /* \"#utility.yul\":5724:5748   */\n      tag_139\n      jump\t// in\n    tag_245:\n        /* \"#utility.yul\":5713:5748   */\n      swap1\n      pop\n        /* \"#utility.yul\":5658:5754   */\n      swap2\n      swap1\n      pop\n      jump\t// out\n        /* \"#utility.yul\":5760:5878   */\n    tag_144:\n        /* \"#utility.yul\":5847:5871   */\n      tag_247\n        /* \"#utility.yul\":5865:5870   */\n      dup2\n        /* \"#utility.yul\":5847:5871   */\n      tag_143\n      jump\t// in\n    tag_247:\n        /* \"#utility.yul\":5842:5845   */\n      dup3\n        /* \"#utility.yul\":5835:5872   */\n      mstore\n        /* \"#utility.yul\":5760:5878   */\n      pop\n      pop\n      jump\t// out\n        /* \"#utility.yul\":5884:5974   */\n    tag_145:\n        /* \"#utility.yul\":5918:5925   */\n      0x00\n        /* \"#utility.yul\":5961:5966   */\n      dup2\n        /* \"#utility.yul\":5954:5967   */\n      iszero\n        /* \"#utility.yul\":5947:5968   */\n      iszero\n        /* \"#utility.yul\":5936:5968   */\n      swap1\n      pop\n        /* \"#utility.yul\":5884:5974   */\n      swap2\n      swap1\n      pop\n      jump\t// out\n        /* \"#utility.yul\":5980:6089   */\n    tag_146:\n        /* \"#utility.yul\":6061:6082   */\n      tag_250\n        /* \"#utility.yul\":6076:6081   */\n      dup2\n        /* \"#utility.yul\":6061:6082   */\n      tag_145\n      jump\t// in\n    tag_250:\n        /* \"#utility.yul\":6056:6059   */\n      dup3\n        /* \"#utility.yul\":6049:6083   */\n      mstore\n        /* \"#utility.yul\":5980:6089   */\n      pop\n      pop\n      jump\t// out\n        /* \"#utility.yul\":6095:7183   */\n    tag_22:\n        /* \"#utility.yul\":6406:6410   */\n      0x00\n        /* \"#utility.yul\":6444:6447   */\n      0xe0\n        /* \"#utility.yul\":6433:6442   */\n      dup3\n        /* \"#utility.yul\":6429:6448   */\n      add\n        /* \"#utility.yul\":6421:6448   */\n      swap1\n      pop\n        /* \"#utility.yul\":6494:6503   */\n      dup2\n        /* \"#utility.yul\":6488:6492   */\n      dup2\n        /* \"#utility.yul\":6484:6504   */\n      sub\n        /* \"#utility.yul\":6480:6481   */\n      0x00\n        /* \"#utility.yul\":6469:6478   */\n      dup4\n        /* \"#utility.yul\":6465:6482   */\n      add\n        /* \"#utility.yul\":6458:6505   */\n      mstore\n        /* \"#utility.yul\":6522:6600   */\n      tag_252\n        /* \"#utility.yul\":6595:6599   */\n      dup2\n        /* \"#utility.yul\":6586:6592   */\n      dup11\n        /* \"#utility.yul\":6522:6600   */\n      tag_138\n      jump\t// in\n    tag_252:\n        /* \"#utility.yul\":6514:6600   */\n      swap1\n      pop\n        /* \"#utility.yul\":6647:6656   */\n      dup2\n        /* \"#utility.yul\":6641:6645   */\n      dup2\n        /* \"#utility.yul\":6637:6657   */\n      sub\n        /* \"#utility.yul\":6632:6634   */\n      0x20\n        /* \"#utility.yul\":6621:6630   */\n      dup4\n        /* \"#utility.yul\":6617:6635   */\n      add\n        /* \"#utility.yul\":6610:6658   */\n      mstore\n        /* \"#utility.yul\":6675:6753   */\n      tag_253\n        /* \"#utility.yul\":6748:6752   */\n      dup2\n        /* \"#utility.yul\":6739:6745   */\n      dup10\n        /* \"#utility.yul\":6675:6753   */\n      tag_138\n      jump\t// in\n    tag_253:\n        /* \"#utility.yul\":6667:6753   */\n      swap1\n      pop\n        /* \"#utility.yul\":6763:6851   */\n      tag_254\n        /* \"#utility.yul\":6847:6849   */\n      0x40\n        /* \"#utility.yul\":6836:6845   */\n      dup4\n        /* \"#utility.yul\":6832:6850   */\n      add\n        /* \"#utility.yul\":6823:6829   */\n      dup9\n        /* \"#utility.yul\":6763:6851   */\n      tag_141\n      jump\t// in\n    tag_254:\n        /* \"#utility.yul\":6861:6933   */\n      tag_255\n        /* \"#utility.yul\":6929:6931   */\n      0x60\n        /* \"#utility.yul\":6918:6927   */\n      dup4\n        /* \"#utility.yul\":6914:6932   */\n      add\n        /* \"#utility.yul\":6905:6911   */\n      dup8\n        /* \"#utility.yul\":6861:6933   */\n      tag_142\n      jump\t// in\n    tag_255:\n        /* \"#utility.yul\":6943:7016   */\n      tag_256\n        /* \"#utility.yul\":7011:7014   */\n      0x80\n        /* \"#utility.yul\":7000:7009   */\n      dup4\n        /* \"#utility.yul\":6996:7015   */\n      add\n        /* \"#utility.yul\":6987:6993   */\n      dup7\n        /* \"#utility.yul\":6943:7016   */\n      tag_142\n      jump\t// in\n    tag_256:\n        /* \"#utility.yul\":7026:7099   */\n      tag_257\n        /* \"#utility.yul\":7094:7097   */\n      0xa0\n        /* \"#utility.yul\":7083:7092   */\n      dup4\n        /* \"#utility.yul\":7079:7098   */\n      add\n        /* \"#utility.yul\":7070:7076   */\n      dup6\n        /* \"#utility.yul\":7026:7099   */\n      tag_144\n      jump\t// in\n    tag_257:\n        /* \"#utility.yul\":7109:7176   */\n      tag_258\n        /* \"#utility.yul\":7171:7174   */\n      0xc0\n        /* \"#utility.yul\":7160:7169   */\n      dup4\n        /* \"#utility.yul\":7156:7175   */\n      add\n        /* \"#utility.yul\":7147:7153   */\n      dup5\n        /* \"#utility.yul\":7109:7176   */\n      tag_146\n      jump\t// in\n    tag_258:\n        /* \"#utility.yul\":6095:7183   */\n      swap9\n      swap8\n      pop\n      pop\n      pop\n      pop\n      pop\n      pop\n      pop\n      pop\n      jump\t// out\n        /* \"#utility.yul\":7189:7362   */\n    tag_147:\n        /* \"#utility.yul\":7329:7354   */\n      0x436f6e747261637420646f6573206e6f74206578697374000000000000000000\n        /* \"#utility.yul\":7325:7326   */\n      0x00\n        /* \"#utility.yul\":7317:7323   */\n      dup3\n        /* \"#utility.yul\":7313:7327   */\n      add\n        /* \"#utility.yul\":7306:7355   */\n      mstore\n        /* \"#utility.yul\":7189:7362   */\n      pop\n      jump\t// out\n        /* \"#utility.yul\":7368:7734   */\n    tag_148:\n        /* \"#utility.yul\":7510:7513   */\n      0x00\n        /* \"#utility.yul\":7531:7598   */\n      tag_261\n        /* \"#utility.yul\":7595:7597   */\n      0x17\n        /* \"#utility.yul\":7590:7593   */\n      dup4\n        /* \"#utility.yul\":7531:7598   */\n      tag_136\n      jump\t// in\n    tag_261:\n        /* \"#utility.yul\":7524:7598   */\n      swap2\n      pop\n        /* \"#utility.yul\":7607:7700   */\n      tag_262\n        /* \"#utility.yul\":7696:7699   */\n      dup3\n        /* \"#utility.yul\":7607:7700   */\n      tag_147\n      jump\t// in\n    tag_262:\n        /* \"#utility.yul\":7725:7727   */\n      0x20\n        /* \"#utility.yul\":7720:7723   */\n      dup3\n        /* \"#utility.yul\":7716:7728   */\n      add\n        /* \"#utility.yul\":7709:7728   */\n      swap1\n      pop\n        /* \"#utility.yul\":7368:7734   */\n      swap2\n      swap1\n      pop\n      jump\t// out\n        /* \"#utility.yul\":7740:8159   */\n    tag_32:\n        /* \"#utility.yul\":7906:7910   */\n      0x00\n        /* \"#utility.yul\":7944:7946   */\n      0x20\n        /* \"#utility.yul\":7933:7942   */\n      dup3\n        /* \"#utility.yul\":7929:7947   */\n      add\n        /* \"#utility.yul\":7921:7947   */\n      swap1\n      pop\n        /* \"#utility.yul\":7993:8002   */\n      dup2\n        /* \"#utility.yul\":7987:7991   */\n      dup2\n        /* \"#utility.yul\":7983:8003   */\n      sub\n        /* \"#utility.yul\":7979:7980   */\n      0x00\n        /* \"#utility.yul\":7968:7977   */\n      dup4\n        /* \"#utility.yul\":7964:7981   */\n      add\n        /* \"#utility.yul\":7957:8004   */\n      mstore\n        /* \"#utility.yul\":8021:8152   */\n      tag_264\n        /* \"#utility.yul\":8147:8151   */\n      dup2\n        /* \"#utility.yul\":8021:8152   */\n      tag_148\n      jump\t// in\n    tag_264:\n        /* \"#utility.yul\":8013:8152   */\n      swap1\n      pop\n        /* \"#utility.yul\":7740:8159   */\n      swap2\n      swap1\n      pop\n      jump\t// out\n        /* \"#utility.yul\":8165:8345   */\n    tag_149:\n        /* \"#utility.yul\":8213:8290   */\n      0x4e487b7100000000000000000000000000000000000000000000000000000000\n        /* \"#utility.yul\":8210:8211   */\n      0x00\n        /* \"#utility.yul\":8203:8291   */\n      mstore\n        /* \"#utility.yul\":8310:8314   */\n      0x11\n        /* \"#utility.yul\":8307:8308   */\n      0x04\n        /* \"#utility.yul\":8300:8315   */\n      mstore\n        /* \"#utility.yul\":8334:8338   */\n      0x24\n        /* \"#utility.yul\":8331:8332   */\n      0x00\n        /* \"#utility.yul\":8324:8339   */\n      revert\n        /* \"#utility.yul\":8351:8545   */\n    tag_35:\n        /* \"#utility.yul\":8391:8395   */\n      0x00\n        /* \"#utility.yul\":8411:8431   */\n      tag_267\n        /* \"#utility.yul\":8429:8430   */\n      dup3\n        /* \"#utility.yul\":8411:8431   */\n      tag_122\n      jump\t// in\n    tag_267:\n        /* \"#utility.yul\":8406:8431   */\n      swap2\n      pop\n        /* \"#utility.yul\":8445:8465   */\n      tag_268\n        /* \"#utility.yul\":8463:8464   */\n      dup4\n        /* \"#utility.yul\":8445:8465   */\n      tag_122\n      jump\t// in\n    tag_268:\n        /* \"#utility.yul\":8440:8465   */\n      swap3\n      pop\n        /* \"#utility.yul\":8489:8490   */\n      dup3\n        /* \"#utility.yul\":8486:8487   */\n      dup3\n        /* \"#utility.yul\":8482:8491   */\n      sub\n        /* \"#utility.yul\":8474:8491   */\n      swap1\n      pop\n        /* \"#utility.yul\":8513:8514   */\n      dup2\n        /* \"#utility.yul\":8507:8511   */\n      dup2\n        /* \"#utility.yul\":8504:8515   */\n      gt\n        /* \"#utility.yul\":8501:8538   */\n      iszero\n      tag_269\n      jumpi\n        /* \"#utility.yul\":8518:8536   */\n      tag_270\n      tag_149\n      jump\t// in\n    tag_270:\n        /* \"#utility.yul\":8501:8538   */\n    tag_269:\n        /* \"#utility.yul\":8351:8545   */\n      swap3\n      swap2\n      pop\n      pop\n      jump\t// out\n        /* \"#utility.yul\":8551:8731   */\n    tag_38:\n        /* \"#utility.yul\":8599:8676   */\n      0x4e487b7100000000000000000000000000000000000000000000000000000000\n        /* \"#utility.yul\":8596:8597   */\n      0x00\n        /* \"#utility.yul\":8589:8677   */\n      mstore\n        /* \"#utility.yul\":8696:8700   */\n      0x32\n        /* \"#utility.yul\":8693:8694   */\n      0x04\n        /* \"#utility.yul\":8686:8701   */\n      mstore\n        /* \"#utility.yul\":8720:8724   */\n      0x24\n        /* \"#utility.yul\":8717:8718   */\n      0x00\n        /* \"#utility.yul\":8710:8725   */\n      revert\n        /* \"#utility.yul\":8737:8909   */\n    tag_150:\n        /* \"#utility.yul\":8877:8901   */\n      0x4f6e6c792062757965722063616e20636f6e6669726d00000000000000000000\n        /* \"#utility.yul\":8873:8874   */\n      0x00\n        /* \"#utility.yul\":8865:8871   */\n      dup3\n        /* \"#utility.yul\":8861:8875   */\n      add\n        /* \"#utility.yul\":8854:8902   */\n      mstore\n        /* \"#utility.yul\":8737:8909   */\n      pop\n      jump\t// out\n        /* \"#utility.yul\":8915:9281   */\n    tag_151:\n        /* \"#utility.yul\":9057:9060   */\n      0x00\n        /* \"#utility.yul\":9078:9145   */\n      tag_274\n        /* \"#utility.yul\":9142:9144   */\n      0x16\n        /* \"#utility.yul\":9137:9140   */\n      dup4\n        /* \"#utility.yul\":9078:9145   */\n      tag_136\n      jump\t// in\n    tag_274:\n        /* \"#utility.yul\":9071:9145   */\n      swap2\n      pop\n        /* \"#utility.yul\":9154:9247   */\n      tag_275\n        /* \"#utility.yul\":9243:9246   */\n      dup3\n        /* \"#utility.yul\":9154:9247   */\n      tag_150\n      jump\t// in\n    tag_275:\n        /* \"#utility.yul\":9272:9274   */\n      0x20\n        /* \"#utility.yul\":9267:9270   */\n      dup3\n        /* \"#utility.yul\":9263:9275   */\n      add\n        /* \"#utility.yul\":9256:9275   */\n      swap1\n      pop\n        /* \"#utility.yul\":8915:9281   */\n      swap2\n      swap1\n      pop\n      jump\t// out\n        /* \"#utility.yul\":9287:9706   */\n    tag_42:\n        /* \"#utility.yul\":9453:9457   */\n      0x00\n        /* \"#utility.yul\":9491:9493   */\n      0x20\n        /* \"#utility.yul\":9480:9489   */\n      dup3\n        /* \"#utility.yul\":9476:9494   */\n      add\n        /* \"#utility.yul\":9468:9494   */\n      swap1\n      pop\n        /* \"#utility.yul\":9540:9549   */\n      dup2\n        /* \"#utility.yul\":9534:9538   */\n      dup2\n        /* \"#utility.yul\":9530:9550   */\n      sub\n        /* \"#utility.yul\":9526:9527   */\n      0x00\n        /* \"#utility.yul\":9515:9524   */\n      dup4\n        /* \"#utility.yul\":9511:9528   */\n      add\n        /* \"#utility.yul\":9504:9551   */\n      mstore\n        /* \"#utility.yul\":9568:9699   */\n      tag_277\n        /* \"#utility.yul\":9694:9698   */\n      dup2\n        /* \"#utility.yul\":9568:9699   */\n      tag_151\n      jump\t// in\n    tag_277:\n        /* \"#utility.yul\":9560:9699   */\n      swap1\n      pop\n        /* \"#utility.yul\":9287:9706   */\n      swap2\n      swap1\n      pop\n      jump\t// out\n        /* \"#utility.yul\":9712:9934   */\n    tag_58:\n        /* \"#utility.yul\":9805:9809   */\n      0x00\n        /* \"#utility.yul\":9843:9845   */\n      0x20\n        /* \"#utility.yul\":9832:9841   */\n      dup3\n        /* \"#utility.yul\":9828:9846   */\n      add\n        /* \"#utility.yul\":9820:9846   */\n      swap1\n      pop\n        /* \"#utility.yul\":9856:9927   */\n      tag_279\n        /* \"#utility.yul\":9924:9925   */\n      0x00\n        /* \"#utility.yul\":9913:9922   */\n      dup4\n        /* \"#utility.yul\":9909:9926   */\n      add\n        /* \"#utility.yul\":9900:9906   */\n      dup5\n        /* \"#utility.yul\":9856:9927   */\n      tag_142\n      jump\t// in\n    tag_279:\n        /* \"#utility.yul\":9712:9934   */\n      swap3\n      swap2\n      pop\n      pop\n      jump\t// out\n        /* \"#utility.yul\":9940:10160   */\n    tag_152:\n        /* \"#utility.yul\":10080:10114   */\n      0x50726963652073686f756c642062652067726561746572207468616e207a6572\n        /* \"#utility.yul\":10076:10077   */\n      0x00\n        /* \"#utility.yul\":10068:10074   */\n      dup3\n        /* \"#utility.yul\":10064:10078   */\n      add\n        /* \"#utility.yul\":10057:10115   */\n      mstore\n        /* \"#utility.yul\":10149:10152   */\n      0x6f00000000000000000000000000000000000000000000000000000000000000\n        /* \"#utility.yul\":10144:10146   */\n      0x20\n        /* \"#utility.yul\":10136:10142   */\n      dup3\n        /* \"#utility.yul\":10132:10147   */\n      add\n        /* \"#utility.yul\":10125:10153   */\n      mstore\n        /* \"#utility.yul\":9940:10160   */\n      pop\n      jump\t// out\n        /* \"#utility.yul\":10166:10532   */\n    tag_153:\n        /* \"#utility.yul\":10308:10311   */\n      0x00\n        /* \"#utility.yul\":10329:10396   */\n      tag_282\n        /* \"#utility.yul\":10393:10395   */\n      0x21\n        /* \"#utility.yul\":10388:10391   */\n      dup4\n        /* \"#utility.yul\":10329:10396   */\n      tag_136\n      jump\t// in\n    tag_282:\n        /* \"#utility.yul\":10322:10396   */\n      swap2\n      pop\n        /* \"#utility.yul\":10405:10498   */\n      tag_283\n        /* \"#utility.yul\":10494:10497   */\n      dup3\n        /* \"#utility.yul\":10405:10498   */\n      tag_152\n      jump\t// in\n    tag_283:\n        /* \"#utility.yul\":10523:10525   */\n      0x40\n        /* \"#utility.yul\":10518:10521   */\n      dup3\n        /* \"#utility.yul\":10514:10526   */\n      add\n        /* \"#utility.yul\":10507:10526   */\n      swap1\n      pop\n        /* \"#utility.yul\":10166:10532   */\n      swap2\n      swap1\n      pop\n      jump\t// out\n        /* \"#utility.yul\":10538:10957   */\n    tag_65:\n        /* \"#utility.yul\":10704:10708   */\n      0x00\n        /* \"#utility.yul\":10742:10744   */\n      0x20\n        /* \"#utility.yul\":10731:10740   */\n      dup3\n        /* \"#utility.yul\":10727:10745   */\n      add\n        /* \"#utility.yul\":10719:10745   */\n      swap1\n      pop\n        /* \"#utility.yul\":10791:10800   */\n      dup2\n        /* \"#utility.yul\":10785:10789   */\n      dup2\n        /* \"#utility.yul\":10781:10801   */\n      sub\n        /* \"#utility.yul\":10777:10778   */\n      0x00\n        /* \"#utility.yul\":10766:10775   */\n      dup4\n        /* \"#utility.yul\":10762:10779   */\n      add\n        /* \"#utility.yul\":10755:10802   */\n      mstore\n        /* \"#utility.yul\":10819:10950   */\n      tag_285\n        /* \"#utility.yul\":10945:10949   */\n      dup2\n        /* \"#utility.yul\":10819:10950   */\n      tag_153\n      jump\t// in\n    tag_285:\n        /* \"#utility.yul\":10811:10950   */\n      swap1\n      pop\n        /* \"#utility.yul\":10538:10957   */\n      swap2\n      swap1\n      pop\n      jump\t// out\n        /* \"#utility.yul\":10963:11373   */\n    tag_69:\n        /* \"#utility.yul\":11003:11010   */\n      0x00\n        /* \"#utility.yul\":11026:11046   */\n      tag_287\n        /* \"#utility.yul\":11044:11045   */\n      dup3\n        /* \"#utility.yul\":11026:11046   */\n      tag_122\n      jump\t// in\n    tag_287:\n        /* \"#utility.yul\":11021:11046   */\n      swap2\n      pop\n        /* \"#utility.yul\":11060:11080   */\n      tag_288\n        /* \"#utility.yul\":11078:11079   */\n      dup4\n        /* \"#utility.yul\":11060:11080   */\n      tag_122\n      jump\t// in\n    tag_288:\n        /* \"#utility.yul\":11055:11080   */\n      swap3\n      pop\n        /* \"#utility.yul\":11115:11116   */\n      dup3\n        /* \"#utility.yul\":11112:11113   */\n      dup3\n        /* \"#utility.yul\":11108:11117   */\n      mul\n        /* \"#utility.yul\":11137:11167   */\n      tag_289\n        /* \"#utility.yul\":11155:11166   */\n      dup2\n        /* \"#utility.yul\":11137:11167   */\n      tag_122\n      jump\t// in\n    tag_289:\n        /* \"#utility.yul\":11126:11167   */\n      swap2\n      pop\n        /* \"#utility.yul\":11316:11317   */\n      dup3\n        /* \"#utility.yul\":11307:11314   */\n      dup3\n        /* \"#utility.yul\":11303:11318   */\n      div\n        /* \"#utility.yul\":11300:11301   */\n      dup5\n        /* \"#utility.yul\":11297:11319   */\n      eq\n        /* \"#utility.yul\":11277:11278   */\n      dup4\n        /* \"#utility.yul\":11270:11279   */\n      iszero\n        /* \"#utility.yul\":11250:11333   */\n      or\n        /* \"#utility.yul\":11227:11366   */\n      tag_290\n      jumpi\n        /* \"#utility.yul\":11346:11364   */\n      tag_291\n      tag_149\n      jump\t// in\n    tag_291:\n        /* \"#utility.yul\":11227:11366   */\n    tag_290:\n        /* \"#utility.yul\":11011:11373   */\n      pop\n        /* \"#utility.yul\":10963:11373   */\n      swap3\n      swap2\n      pop\n      pop\n      jump\t// out\n        /* \"#utility.yul\":11379:11559   */\n    tag_154:\n        /* \"#utility.yul\":11427:11504   */\n      0x4e487b7100000000000000000000000000000000000000000000000000000000\n        /* \"#utility.yul\":11424:11425   */\n      0x00\n        /* \"#utility.yul\":11417:11505   */\n      mstore\n        /* \"#utility.yul\":11524:11528   */\n      0x22\n        /* \"#utility.yul\":11521:11522   */\n      0x04\n        /* \"#utility.yul\":11514:11529   */\n      mstore\n        /* \"#utility.yul\":11548:11552   */\n      0x24\n        /* \"#utility.yul\":11545:11546   */\n      0x00\n        /* \"#utility.yul\":11538:11553   */\n      revert\n        /* \"#utility.yul\":11565:11885   */\n    tag_81:\n        /* \"#utility.yul\":11609:11615   */\n      0x00\n        /* \"#utility.yul\":11646:11647   */\n      0x02\n        /* \"#utility.yul\":11640:11644   */\n      dup3\n        /* \"#utility.yul\":11636:11648   */\n      div\n        /* \"#utility.yul\":11626:11648   */\n      swap1\n      pop\n        /* \"#utility.yul\":11693:11694   */\n      0x01\n        /* \"#utility.yul\":11687:11691   */\n      dup3\n        /* \"#utility.yul\":11683:11695   */\n      and\n        /* \"#utility.yul\":11714:11732   */\n      dup1\n        /* \"#utility.yul\":11704:11785   */\n      tag_294\n      jumpi\n        /* \"#utility.yul\":11770:11774   */\n      0x7f\n        /* \"#utility.yul\":11762:11768   */\n      dup3\n        /* \"#utility.yul\":11758:11775   */\n      and\n        /* \"#utility.yul\":11748:11775   */\n      swap2\n      pop\n        /* \"#utility.yul\":11704:11785   */\n    tag_294:\n        /* \"#utility.yul\":11832:11834   */\n      0x20\n        /* \"#utility.yul\":11824:11830   */\n      dup3\n        /* \"#utility.yul\":11821:11835   */\n      lt\n        /* \"#utility.yul\":11801:11819   */\n      dup2\n        /* \"#utility.yul\":11798:11836   */\n      sub\n        /* \"#utility.yul\":11795:11879   */\n      tag_295\n      jumpi\n        /* \"#utility.yul\":11851:11869   */\n      tag_296\n      tag_154\n      jump\t// in\n    tag_296:\n        /* \"#utility.yul\":11795:11879   */\n    tag_295:\n        /* \"#utility.yul\":11616:11885   */\n      pop\n        /* \"#utility.yul\":11565:11885   */\n      swap2\n      swap1\n      pop\n      jump\t// out\n        /* \"#utility.yul\":11891:12032   */\n    tag_155:\n        /* \"#utility.yul\":11940:11944   */\n      0x00\n        /* \"#utility.yul\":11963:11966   */\n      dup2\n        /* \"#utility.yul\":11955:11966   */\n      swap1\n      pop\n        /* \"#utility.yul\":11986:11989   */\n      dup2\n        /* \"#utility.yul\":11983:11984   */\n      0x00\n        /* \"#utility.yul\":11976:11990   */\n      mstore\n        /* \"#utility.yul\":12020:12024   */\n      0x20\n        /* \"#utility.yul\":12017:12018   */\n      0x00\n        /* \"#utility.yul\":12007:12025   */\n      keccak256\n        /* \"#utility.yul\":11999:12025   */\n      swap1\n      pop\n        /* \"#utility.yul\":11891:12032   */\n      swap2\n      swap1\n      pop\n      jump\t// out\n        /* \"#utility.yul\":12038:12131   */\n    tag_156:\n        /* \"#utility.yul\":12075:12081   */\n      0x00\n        /* \"#utility.yul\":12122:12124   */\n      0x20\n        /* \"#utility.yul\":12117:12119   */\n      0x1f\n        /* \"#utility.yul\":12110:12115   */\n      dup4\n        /* \"#utility.yul\":12106:12120   */\n      add\n        /* \"#utility.yul\":12102:12125   */\n      div\n        /* \"#utility.yul\":12092:12125   */\n      swap1\n      pop\n        /* \"#utility.yul\":12038:12131   */\n      swap2\n      swap1\n      pop\n      jump\t// out\n        /* \"#utility.yul\":12137:12244   */\n    tag_157:\n        /* \"#utility.yul\":12181:12189   */\n      0x00\n        /* \"#utility.yul\":12231:12236   */\n      dup3\n        /* \"#utility.yul\":12225:12229   */\n      dup3\n        /* \"#utility.yul\":12221:12237   */\n      shl\n        /* \"#utility.yul\":12200:12237   */\n      swap1\n      pop\n        /* \"#utility.yul\":12137:12244   */\n      swap3\n      swap2\n      pop\n      pop\n      jump\t// out\n        /* \"#utility.yul\":12250:12643   */\n    tag_158:\n        /* \"#utility.yul\":12319:12325   */\n      0x00\n        /* \"#utility.yul\":12369:12370   */\n      0x08\n        /* \"#utility.yul\":12357:12367   */\n      dup4\n        /* \"#utility.yul\":12353:12371   */\n      mul\n        /* \"#utility.yul\":12392:12489   */\n      tag_301\n        /* \"#utility.yul\":12422:12488   */\n      0xffffffffffffffffffffffffffffffffffffffffffffffffffffffffffffffff\n        /* \"#utility.yul\":12411:12420   */\n      dup3\n        /* \"#utility.yul\":12392:12489   */\n      tag_157\n      jump\t// in\n    tag_301:\n        /* \"#utility.yul\":12510:12549   */\n      tag_302\n        /* \"#utility.yul\":12540:12548   */\n      dup7\n        /* \"#utility.yul\":12529:12538   */\n      dup4\n        /* \"#utility.yul\":12510:12549   */\n      tag_157\n      jump\t// in\n    tag_302:\n        /* \"#utility.yul\":12498:12549   */\n      swap6\n      pop\n        /* \"#utility.yul\":12582:12586   */\n      dup1\n        /* \"#utility.yul\":12578:12587   */\n      not\n        /* \"#utility.yul\":12571:12576   */\n      dup5\n        /* \"#utility.yul\":12567:12588   */\n      and\n        /* \"#utility.yul\":12558:12588   */\n      swap4\n      pop\n        /* \"#utility.yul\":12631:12635   */\n      dup1\n        /* \"#utility.yul\":12621:12629   */\n      dup7\n        /* \"#utility.yul\":12617:12636   */\n      and\n        /* \"#utility.yul\":12610:12615   */\n      dup5\n        /* \"#utility.yul\":12607:12637   */\n      or\n        /* \"#utility.yul\":12597:12637   */\n      swap3\n      pop\n        /* \"#utility.yul\":12326:12643   */\n      pop\n      pop\n        /* \"#utility.yul\":12250:12643   */\n      swap4\n      swap3\n      pop\n      pop\n      pop\n      jump\t// out\n        /* \"#utility.yul\":12649:12709   */\n    tag_159:\n        /* \"#utility.yul\":12677:12680   */\n      0x00\n        /* \"#utility.yul\":12698:12703   */\n      dup2\n        /* \"#utility.yul\":12691:12703   */\n      swap1\n      pop\n        /* \"#utility.yul\":12649:12709   */\n      swap2\n      swap1\n      pop\n      jump\t// out\n        /* \"#utility.yul\":12715:12857   */\n    tag_160:\n        /* \"#utility.yul\":12765:12774   */\n      0x00\n        /* \"#utility.yul\":12798:12851   */\n      tag_305\n        /* \"#utility.yul\":12816:12850   */\n      tag_306\n        /* \"#utility.yul\":12825:12849   */\n      tag_307\n        /* \"#utility.yul\":12843:12848   */\n      dup5\n        /* \"#utility.yul\":12825:12849   */\n      tag_122\n      jump\t// in\n    tag_307:\n        /* \"#utility.yul\":12816:12850   */\n      tag_159\n      jump\t// in\n    tag_306:\n        /* \"#utility.yul\":12798:12851   */\n      tag_122\n      jump\t// in\n    tag_305:\n        /* \"#utility.yul\":12785:12851   */\n      swap1\n      pop\n        /* \"#utility.yul\":12715:12857   */\n      swap2\n      swap1\n      pop\n      jump\t// out\n        /* \"#utility.yul\":12863:12938   */\n    tag_161:\n        /* \"#utility.yul\":12906:12909   */\n      0x00\n        /* \"#utility.yul\":12927:12932   */\n      dup2\n        /* \"#utility.yul\":12920:12932   */\n      swap1\n      pop\n        /* \"#utility.yul\":12863:12938   */\n      swap2\n      swap1\n      pop\n      jump\t// out\n        /* \"#utility.yul\":12944:13213   */\n    tag_162:\n        /* \"#utility.yul\":13054:13093   */\n      tag_310\n        /* \"#utility.yul\":13085:13092   */\n      dup4\n        /* \"#utility.yul\":13054:13093   */\n      tag_160\n      jump\t// in\n    tag_310:\n        /* \"#utility.yul\":13115:13206   */\n      tag_311\n        /* \"#utility.yul\":13164:13205   */\n      tag_312\n        /* \"#utility.yul\":13188:13204   */\n      dup3\n        /* \"#utility.yul\":13164:13205   */\n      tag_161\n      jump\t// in\n    tag_312:\n        /* \"#utility.yul\":13156:13162   */\n      dup5\n        /* \"#utility.yul\":13149:13153   */\n      dup5\n        /* \"#utility.yul\":13143:13154   */\n      sload\n        /* \"#utility.yul\":13115:13206   */\n      tag_158\n      jump\t// in\n    tag_311:\n        /* \"#utility.yul\":13109:13113   */\n      dup3\n        /* \"#utility.yul\":13102:13207   */\n      sstore\n        /* \"#utility.yul\":13020:13213   */\n      pop\n        /* \"#utility.yul\":12944:13213   */\n      pop\n      pop\n      pop\n      jump\t// out\n        /* \"#utility.yul\":13219:13292   */\n    tag_163:\n        /* \"#utility.yul\":13264:13267   */\n      0x00\n        /* \"#utility.yul\":13219:13292   */\n      swap1\n      jump\t// out\n        /* \"#utility.yul\":13298:13487   */\n    tag_164:\n        /* \"#utility.yul\":13375:13407   */\n      tag_315\n      tag_163\n      jump\t// in\n    tag_315:\n        /* \"#utility.yul\":13416:13481   */\n      tag_316\n        /* \"#utility.yul\":13474:13480   */\n      dup2\n        /* \"#utility.yul\":13466:13472   */\n      dup5\n        /* \"#utility.yul\":13460:13464   */\n      dup5\n        /* \"#utility.yul\":13416:13481   */\n      tag_162\n      jump\t// in\n    tag_316:\n        /* \"#utility.yul\":13351:13487   */\n      pop\n        /* \"#utility.yul\":13298:13487   */\n      pop\n      pop\n      jump\t// out\n        /* \"#utility.yul\":13493:13679   */\n    tag_165:\n        /* \"#utility.yul\":13553:13673   */\n    tag_318:\n        /* \"#utility.yul\":13570:13573   */\n      dup2\n        /* \"#utility.yul\":13563:13568   */\n      dup2\n        /* \"#utility.yul\":13560:13574   */\n      lt\n        /* \"#utility.yul\":13553:13673   */\n      iszero\n      tag_320\n      jumpi\n        /* \"#utility.yul\":13624:13663   */\n      tag_321\n        /* \"#utility.yul\":13661:13662   */\n      0x00\n        /* \"#utility.yul\":13654:13659   */\n      dup3\n        /* \"#utility.yul\":13624:13663   */\n      tag_164\n      jump\t// in\n    tag_321:\n        /* \"#utility.yul\":13597:13598   */\n      0x01\n        /* \"#utility.yul\":13590:13595   */\n      dup2\n        /* \"#utility.yul\":13586:13599   */\n      add\n        /* \"#utility.yul\":13577:13599   */\n      swap1\n      pop\n        /* \"#utility.yul\":13553:13673   */\n      jump(tag_318)\n    tag_320:\n        /* \"#utility.yul\":13493:13679   */\n      pop\n      pop\n      jump\t// out\n        /* \"#utility.yul\":13685:14228   */\n    tag_166:\n        /* \"#utility.yul\":13786:13788   */\n      0x1f\n        /* \"#utility.yul\":13781:13784   */\n      dup3\n        /* \"#utility.yul\":13778:13789   */\n      gt\n        /* \"#utility.yul\":13775:14221   */\n      iszero\n      tag_323\n      jumpi\n        /* \"#utility.yul\":13820:13858   */\n      tag_324\n        /* \"#utility.yul\":13852:13857   */\n      dup2\n        /* \"#utility.yul\":13820:13858   */\n      tag_155\n      jump\t// in\n    tag_324:\n        /* \"#utility.yul\":13904:13933   */\n      tag_325\n        /* \"#utility.yul\":13922:13932   */\n      dup5\n        /* \"#utility.yul\":13904:13933   */\n      tag_156\n      jump\t// in\n    tag_325:\n        /* \"#utility.yul\":13894:13902   */\n      dup2\n        /* \"#utility.yul\":13890:13934   */\n      add\n        /* \"#utility.yul\":14087:14089   */\n      0x20\n        /* \"#utility.yul\":14075:14085   */\n      dup6\n        /* \"#utility.yul\":14072:14090   */\n      lt\n        /* \"#utility.yul\":14069:14118   */\n      iszero\n      tag_326\n      jumpi\n        /* \"#utility.yul\":14108:14116   */\n      dup2\n        /* \"#utility.yul\":14093:14116   */\n      swap1\n      pop\n        /* \"#utility.yul\":14069:14118   */\n    tag_326:\n        /* \"#utility.yul\":14131:14211   */\n      tag_327\n        /* \"#utility.yul\":14187:14209   */\n      tag_328\n        /* \"#utility.yul\":14205:14208   */\n      dup6\n        /* \"#utility.yul\":14187:14209   */\n      tag_156\n      jump\t// in\n    tag_328:\n        /* \"#utility.yul\":14177:14185   */\n      dup4\n        /* \"#utility.yul\":14173:14210   */\n      add\n        /* \"#utility.yul\":14160:14171   */\n      dup3\n        /* \"#utility.yul\":14131:14211   */\n      tag_165\n      jump\t// in\n    tag_327:\n        /* \"#utility.yul\":13790:14221   */\n      pop\n      pop\n        /* \"#utility.yul\":13775:14221   */\n    tag_323:\n        /* \"#utility.yul\":13685:14228   */\n      pop\n      pop\n      pop\n      jump\t// out\n        /* \"#utility.yul\":14234:14351   */\n    tag_167:\n        /* \"#utility.yul\":14288:14296   */\n      0x00\n        /* \"#utility.yul\":14338:14343   */\n      dup3\n        /* \"#utility.yul\":14332:14336   */\n      dup3\n        /* \"#utility.yul\":14328:14344   */\n      shr\n        /* \"#utility.yul\":14307:14344   */\n      swap1\n      pop\n        /* \"#utility.yul\":14234:14351   */\n      swap3\n      swap2\n      pop\n      pop\n      jump\t// out\n        /* \"#utility.yul\":14357:14526   */\n    tag_168:\n        /* \"#utility.yul\":14401:14407   */\n      0x00\n        /* \"#utility.yul\":14434:14485   */\n      tag_331\n        /* \"#utility.yul\":14482:14483   */\n      0x00\n        /* \"#utility.yul\":14478:14484   */\n      not\n        /* \"#utility.yul\":14470:14475   */\n      dup5\n        /* \"#utility.yul\":14467:14468   */\n      0x08\n        /* \"#utility.yul\":14463:14476   */\n      mul\n        /* \"#utility.yul\":14434:14485   */\n      tag_167\n      jump\t// in\n    tag_331:\n        /* \"#utility.yul\":14430:14486   */\n      not\n        /* \"#utility.yul\":14515:14519   */\n      dup1\n        /* \"#utility.yul\":14509:14513   */\n      dup4\n        /* \"#utility.yul\":14505:14520   */\n      and\n        /* \"#utility.yul\":14495:14520   */\n      swap2\n      pop\n        /* \"#utility.yul\":14408:14526   */\n      pop\n        /* \"#utility.yul\":14357:14526   */\n      swap3\n      swap2\n      pop\n      pop\n      jump\t// out\n        /* \"#utility.yul\":14531:14826   */\n    tag_169:\n        /* \"#utility.yul\":14607:14611   */\n      0x00\n        /* \"#utility.yul\":14753:14782   */\n      tag_333\n        /* \"#utility.yul\":14778:14781   */\n      dup4\n        /* \"#utility.yul\":14772:14776   */\n      dup4\n        /* \"#utility.yul\":14753:14782   */\n      tag_168\n      jump\t// in\n    tag_333:\n        /* \"#utility.yul\":14745:14782   */\n      swap2\n      pop\n        /* \"#utility.yul\":14815:14818   */\n      dup3\n        /* \"#utility.yul\":14812:14813   */\n      0x02\n        /* \"#utility.yul\":14808:14819   */\n      mul\n        /* \"#utility.yul\":14802:14806   */\n      dup3\n        /* \"#utility.yul\":14799:14820   */\n      or\n        /* \"#utility.yul\":14791:14820   */\n      swap1\n      pop\n        /* \"#utility.yul\":14531:14826   */\n      swap3\n      swap2\n      pop\n      pop\n      jump\t// out\n        /* \"#utility.yul\":14831:16226   */\n    tag_72:\n        /* \"#utility.yul\":14948:14985   */\n      tag_335\n        /* \"#utility.yul\":14981:14984   */\n      dup3\n        /* \"#utility.yul\":14948:14985   */\n      tag_135\n      jump\t// in\n    tag_335:\n        /* \"#utility.yul\":15050:15068   */\n      0xffffffffffffffff\n        /* \"#utility.yul\":15042:15048   */\n      dup2\n        /* \"#utility.yul\":15039:15069   */\n      gt\n        /* \"#utility.yul\":15036:15092   */\n      iszero\n      tag_336\n      jumpi\n        /* \"#utility.yul\":15072:15090   */\n      tag_337\n      tag_128\n      jump\t// in\n    tag_337:\n        /* \"#utility.yul\":15036:15092   */\n    tag_336:\n        /* \"#utility.yul\":15116:15154   */\n      tag_338\n        /* \"#utility.yul\":15148:15152   */\n      dup3\n        /* \"#utility.yul\":15142:15153   */\n      sload\n        /* \"#utility.yul\":15116:15154   */\n      tag_81\n      jump\t// in\n    tag_338:\n        /* \"#utility.yul\":15201:15268   */\n      tag_339\n        /* \"#utility.yul\":15261:15267   */\n      dup3\n        /* \"#utility.yul\":15253:15259   */\n      dup3\n        /* \"#utility.yul\":15247:15251   */\n      dup6\n        /* \"#utility.yul\":15201:15268   */\n      tag_166\n      jump\t// in\n    tag_339:\n        /* \"#utility.yul\":15295:15296   */\n      0x00\n        /* \"#utility.yul\":15319:15323   */\n      0x20\n        /* \"#utility.yul\":15306:15323   */\n      swap1\n      pop\n        /* \"#utility.yul\":15351:15353   */\n      0x1f\n        /* \"#utility.yul\":15343:15349   */\n      dup4\n        /* \"#utility.yul\":15340:15354   */\n      gt\n        /* \"#utility.yul\":15368:15369   */\n      0x01\n        /* \"#utility.yul\":15363:15981   */\n      dup2\n      eq\n      tag_341\n      jumpi\n        /* \"#utility.yul\":16025:16026   */\n      0x00\n        /* \"#utility.yul\":16042:16048   */\n      dup5\n        /* \"#utility.yul\":16039:16116   */\n      iszero\n      tag_342\n      jumpi\n        /* \"#utility.yul\":16091:16100   */\n      dup3\n        /* \"#utility.yul\":16086:16089   */\n      dup8\n        /* \"#utility.yul\":16082:16101   */\n      add\n        /* \"#utility.yul\":16076:16102   */\n      mload\n        /* \"#utility.yul\":16067:16102   */\n      swap1\n      pop\n        /* \"#utility.yul\":16039:16116   */\n    tag_342:\n        /* \"#utility.yul\":16142:16209   */\n      tag_343\n        /* \"#utility.yul\":16202:16208   */\n      dup6\n        /* \"#utility.yul\":16195:16200   */\n      dup3\n        /* \"#utility.yul\":16142:16209   */\n      tag_169\n      jump\t// in\n    tag_343:\n        /* \"#utility.yul\":16136:16140   */\n      dup7\n        /* \"#utility.yul\":16129:16210   */\n      sstore\n        /* \"#utility.yul\":15998:16220   */\n      pop\n        /* \"#utility.yul\":15333:16220   */\n      jump(tag_340)\n        /* \"#utility.yul\":15363:15981   */\n    tag_341:\n        /* \"#utility.yul\":15415:15419   */\n      0x1f\n        /* \"#utility.yul\":15411:15420   */\n      not\n        /* \"#utility.yul\":15403:15409   */\n      dup5\n        /* \"#utility.yul\":15399:15421   */\n      and\n        /* \"#utility.yul\":15449:15486   */\n      tag_344\n        /* \"#utility.yul\":15481:15485   */\n      dup7\n        /* \"#utility.yul\":15449:15486   */\n      tag_155\n      jump\t// in\n    tag_344:\n        /* \"#utility.yul\":15508:15509   */\n      0x00\n        /* \"#utility.yul\":15522:15730   */\n    tag_345:\n        /* \"#utility.yul\":15536:15543   */\n      dup3\n        /* \"#utility.yul\":15533:15534   */\n      dup2\n        /* \"#utility.yul\":15530:15544   */\n      lt\n        /* \"#utility.yul\":15522:15730   */\n      iszero\n      tag_347\n      jumpi\n        /* \"#utility.yul\":15615:15624   */\n      dup5\n        /* \"#utility.yul\":15610:15613   */\n      dup10\n        /* \"#utility.yul\":15606:15625   */\n      add\n        /* \"#utility.yul\":15600:15626   */\n      mload\n        /* \"#utility.yul\":15592:15598   */\n      dup3\n        /* \"#utility.yul\":15585:15627   */\n      sstore\n        /* \"#utility.yul\":15666:15667   */\n      0x01\n        /* \"#utility.yul\":15658:15664   */\n      dup3\n        /* \"#utility.yul\":15654:15668   */\n      add\n        /* \"#utility.yul\":15644:15668   */\n      swap2\n      pop\n        /* \"#utility.yul\":15713:15715   */\n      0x20\n        /* \"#utility.yul\":15702:15711   */\n      dup6\n        /* \"#utility.yul\":15698:15716   */\n      add\n        /* \"#utility.yul\":15685:15716   */\n      swap5\n      pop\n        /* \"#utility.yul\":15559:15563   */\n      0x20\n        /* \"#utility.yul\":15556:15557   */\n      dup2\n        /* \"#utility.yul\":15552:15564   */\n      add\n        /* \"#utility.yul\":15547:15564   */\n      swap1\n      pop\n        /* \"#utility.yul\":15522:15730   */\n      jump(tag_345)\n    tag_347:\n        /* \"#utility.yul\":15758:15764   */\n      dup7\n        /* \"#utility.yul\":15749:15756   */\n      dup4\n        /* \"#utility.yul\":15746:15765   */\n      lt\n        /* \"#utility.yul\":15743:15922   */\n      iszero\n      tag_348\n      jumpi\n        /* \"#utility.yul\":15816:15825   */\n      dup5\n        /* \"#utility.yul\":15811:15814   */\n      dup10\n        /* \"#utility.yul\":15807:15826   */\n      add\n        /* \"#utility.yul\":15801:15827   */\n      mload\n        /* \"#utility.yul\":15859:15907   */\n      tag_349\n        /* \"#utility.yul\":15901:15905   */\n      0x1f\n        /* \"#utility.yul\":15893:15899   */\n      dup10\n        /* \"#utility.yul\":15889:15906   */\n      and\n        /* \"#utility.yul\":15878:15887   */\n      dup3\n        /* \"#utility.yul\":15859:15907   */\n      tag_168\n      jump\t// in\n    tag_349:\n        /* \"#utility.yul\":15851:15857   */\n      dup4\n        /* \"#utility.yul\":15844:15908   */\n      sstore\n        /* \"#utility.yul\":15766:15922   */\n      pop\n        /* \"#utility.yul\":15743:15922   */\n    tag_348:\n        /* \"#utility.yul\":15968:15969   */\n      0x01\n        /* \"#utility.yul\":15964:15965   */\n      0x02\n        /* \"#utility.yul\":15956:15962   */\n      dup9\n        /* \"#utility.yul\":15952:15966   */\n      mul\n        /* \"#utility.yul\":15948:15970   */\n      add\n        /* \"#utility.yul\":15942:15946   */\n      dup9\n        /* \"#utility.yul\":15935:15971   */\n      sstore\n        /* \"#utility.yul\":15370:15981   */\n      pop\n      pop\n      pop\n        /* \"#utility.yul\":15333:16220   */\n    tag_340:\n      pop\n        /* \"#utility.yul\":14923:16226   */\n      pop\n      pop\n      pop\n        /* \"#utility.yul\":14831:16226   */\n      pop\n      pop\n      jump\t// out\n        /* \"#utility.yul\":16232:16465   */\n    tag_75:\n        /* \"#utility.yul\":16271:16274   */\n      0x00\n        /* \"#utility.yul\":16294:16318   */\n      tag_351\n        /* \"#utility.yul\":16312:16317   */\n      dup3\n        /* \"#utility.yul\":16294:16318   */\n      tag_122\n      jump\t// in\n    tag_351:\n        /* \"#utility.yul\":16285:16318   */\n      swap2\n      pop\n        /* \"#utility.yul\":16340:16406   */\n      0xffffffffffffffffffffffffffffffffffffffffffffffffffffffffffffffff\n        /* \"#utility.yul\":16333:16338   */\n      dup3\n        /* \"#utility.yul\":16330:16407   */\n      sub\n        /* \"#utility.yul\":16327:16430   */\n      tag_352\n      jumpi\n        /* \"#utility.yul\":16410:16428   */\n      tag_353\n      tag_149\n      jump\t// in\n    tag_353:\n        /* \"#utility.yul\":16327:16430   */\n    tag_352:\n        /* \"#utility.yul\":16457:16458   */\n      0x01\n        /* \"#utility.yul\":16450:16455   */\n      dup3\n        /* \"#utility.yul\":16446:16459   */\n      add\n        /* \"#utility.yul\":16439:16459   */\n      swap1\n      pop\n        /* \"#utility.yul\":16232:16465   */\n      swap2\n      swap1\n      pop\n      jump\t// out\n        /* \"#utility.yul\":16471:17004   */\n    tag_77:\n        /* \"#utility.yul\":16640:16644   */\n      0x00\n        /* \"#utility.yul\":16678:16680   */\n      0x60\n        /* \"#utility.yul\":16667:16676   */\n      dup3\n        /* \"#utility.yul\":16663:16681   */\n      add\n        /* \"#utility.yul\":16655:16681   */\n      swap1\n      pop\n        /* \"#utility.yul\":16727:16736   */\n      dup2\n        /* \"#utility.yul\":16721:16725   */\n      dup2\n        /* \"#utility.yul\":16717:16737   */\n      sub\n        /* \"#utility.yul\":16713:16714   */\n      0x00\n        /* \"#utility.yul\":16702:16711   */\n      dup4\n        /* \"#utility.yul\":16698:16715   */\n      add\n        /* \"#utility.yul\":16691:16738   */\n      mstore\n        /* \"#utility.yul\":16755:16833   */\n      tag_355\n        /* \"#utility.yul\":16828:16832   */\n      dup2\n        /* \"#utility.yul\":16819:16825   */\n      dup7\n        /* \"#utility.yul\":16755:16833   */\n      tag_138\n      jump\t// in\n    tag_355:\n        /* \"#utility.yul\":16747:16833   */\n      swap1\n      pop\n        /* \"#utility.yul\":16843:16915   */\n      tag_356\n        /* \"#utility.yul\":16911:16913   */\n      0x20\n        /* \"#utility.yul\":16900:16909   */\n      dup4\n        /* \"#utility.yul\":16896:16914   */\n      add\n        /* \"#utility.yul\":16887:16893   */\n      dup6\n        /* \"#utility.yul\":16843:16915   */\n      tag_142\n      jump\t// in\n    tag_356:\n        /* \"#utility.yul\":16925:16997   */\n      tag_357\n        /* \"#utility.yul\":16993:16995   */\n      0x40\n        /* \"#utility.yul\":16982:16991   */\n      dup4\n        /* \"#utility.yul\":16978:16996   */\n      add\n        /* \"#utility.yul\":16969:16975   */\n      dup5\n        /* \"#utility.yul\":16925:16997   */\n      tag_144\n      jump\t// in\n    tag_357:\n        /* \"#utility.yul\":16471:17004   */\n      swap5\n      swap4\n      pop\n      pop\n      pop\n      pop\n      jump\t// out\n        /* \"#utility.yul\":17010:17232   */\n    tag_170:\n        /* \"#utility.yul\":17150:17184   */\n      0x6f6e6c79206d616e616765722063616e2063616c6c20746869732066756e6374\n        /* \"#utility.yul\":17146:17147   */\n      0x00\n        /* \"#utility.yul\":17138:17144   */\n      dup3\n        /* \"#utility.yul\":17134:17148   */\n      add\n        /* \"#utility.yul\":17127:17185   */\n      mstore\n        /* \"#utility.yul\":17219:17224   */\n      0x696f6e0000000000000000000000000000000000000000000000000000000000\n        /* \"#utility.yul\":17214:17216   */\n      0x20\n        /* \"#utility.yul\":17206:17212   */\n      dup3\n        /* \"#utility.yul\":17202:17217   */\n      add\n        /* \"#utility.yul\":17195:17225   */\n      mstore\n        /* \"#utility.yul\":17010:17232   */\n      pop\n      jump\t// out\n        /* \"#utility.yul\":17238:17604   */\n    tag_171:\n        /* \"#utility.yul\":17380:17383   */\n      0x00\n        /* \"#utility.yul\":17401:17468   */\n      tag_360\n        /* \"#utility.yul\":17465:17467   */\n      0x23\n        /* \"#utility.yul\":17460:17463   */\n      dup4\n        /* \"#utility.yul\":17401:17468   */\n      tag_136\n      jump\t// in\n    tag_360:\n        /* \"#utility.yul\":17394:17468   */\n      swap2\n      pop\n        /* \"#utility.yul\":17477:17570   */\n      tag_361\n        /* \"#utility.yul\":17566:17569   */\n      dup3\n        /* \"#utility.yul\":17477:17570   */\n      tag_170\n      jump\t// in\n    tag_361:\n        /* \"#utility.yul\":17595:17597   */\n      0x40\n        /* \"#utility.yul\":17590:17593   */\n      dup3\n        /* \"#utility.yul\":17586:17598   */\n      add\n        /* \"#utility.yul\":17579:17598   */\n      swap1\n      pop\n        /* \"#utility.yul\":17238:17604   */\n      swap2\n      swap1\n      pop\n      jump\t// out\n        /* \"#utility.yul\":17610:18029   */\n    tag_94:\n        /* \"#utility.yul\":17776:17780   */\n      0x00\n        /* \"#utility.yul\":17814:17816   */\n      0x20\n        /* \"#utility.yul\":17803:17812   */\n      dup3\n        /* \"#utility.yul\":17799:17817   */\n      add\n        /* \"#utility.yul\":17791:17817   */\n      swap1\n      pop\n        /* \"#utility.yul\":17863:17872   */\n      dup2\n        /* \"#utility.yul\":17857:17861   */\n      dup2\n        /* \"#utility.yul\":17853:17873   */\n      sub\n        /* \"#utility.yul\":17849:17850   */\n      0x00\n        /* \"#utility.yul\":17838:17847   */\n      dup4\n        /* \"#utility.yul\":17834:17851   */\n      add\n        /* \"#utility.yul\":17827:17874   */\n      mstore\n        /* \"#utility.yul\":17891:18022   */\n      tag_363\n        /* \"#utility.yul\":18017:18021   */\n      dup2\n        /* \"#utility.yul\":17891:18022   */\n      tag_171\n      jump\t// in\n    tag_363:\n        /* \"#utility.yul\":17883:18022   */\n      swap1\n      pop\n        /* \"#utility.yul\":17610:18029   */\n      swap2\n      swap1\n      pop\n      jump\t// out\n        /* \"#utility.yul\":18035:18211   */\n    tag_172:\n        /* \"#utility.yul\":18175:18203   */\n      0x506c656173652050617920746865206578616374207072696365000000000000\n        /* \"#utility.yul\":18171:18172   */\n      0x00\n        /* \"#utility.yul\":18163:18169   */\n      dup3\n        /* \"#utility.yul\":18159:18173   */\n      add\n        /* \"#utility.yul\":18152:18204   */\n      mstore\n        /* \"#utility.yul\":18035:18211   */\n      pop\n      jump\t// out\n        /* \"#utility.yul\":18217:18583   */\n    tag_173:\n        /* \"#utility.yul\":18359:18362   */\n      0x00\n        /* \"#utility.yul\":18380:18447   */\n      tag_366\n        /* \"#utility.yul\":18444:18446   */\n      0x1a\n        /* \"#utility.yul\":18439:18442   */\n      dup4\n        /* \"#utility.yul\":18380:18447   */\n      tag_136\n      jump\t// in\n    tag_366:\n        /* \"#utility.yul\":18373:18447   */\n      swap2\n      pop\n        /* \"#utility.yul\":18456:18549   */\n      tag_367\n        /* \"#utility.yul\":18545:18548   */\n      dup3\n        /* \"#utility.yul\":18456:18549   */\n      tag_172\n      jump\t// in\n    tag_367:\n        /* \"#utility.yul\":18574:18576   */\n      0x20\n        /* \"#utility.yul\":18569:18572   */\n      dup3\n        /* \"#utility.yul\":18565:18577   */\n      add\n        /* \"#utility.yul\":18558:18577   */\n      swap1\n      pop\n        /* \"#utility.yul\":18217:18583   */\n      swap2\n      swap1\n      pop\n      jump\t// out\n        /* \"#utility.yul\":18589:19008   */\n    tag_105:\n        /* \"#utility.yul\":18755:18759   */\n      0x00\n        /* \"#utility.yul\":18793:18795   */\n      0x20\n        /* \"#utility.yul\":18782:18791   */\n      dup3\n        /* \"#utility.yul\":18778:18796   */\n      add\n        /* \"#utility.yul\":18770:18796   */\n      swap1\n      pop\n        /* \"#utility.yul\":18842:18851   */\n      dup2\n        /* \"#utility.yul\":18836:18840   */\n      dup2\n        /* \"#utility.yul\":18832:18852   */\n      sub\n        /* \"#utility.yul\":18828:18829   */\n      0x00\n        /* \"#utility.yul\":18817:18826   */\n      dup4\n        /* \"#utility.yul\":18813:18830   */\n      add\n        /* \"#utility.yul\":18806:18853   */\n      mstore\n        /* \"#utility.yul\":18870:19001   */\n      tag_369\n        /* \"#utility.yul\":18996:19000   */\n      dup2\n        /* \"#utility.yul\":18870:19001   */\n      tag_173\n      jump\t// in\n    tag_369:\n        /* \"#utility.yul\":18862:19001   */\n      swap1\n      pop\n        /* \"#utility.yul\":18589:19008   */\n      swap2\n      swap1\n      pop\n      jump\t// out\n        /* \"#utility.yul\":19014:19190   */\n    tag_174:\n        /* \"#utility.yul\":19154:19182   */\n      0x53656c6c65722063616e6e6f7420626520746865206275796572000000000000\n        /* \"#utility.yul\":19150:19151   */\n      0x00\n        /* \"#utility.yul\":19142:19148   */\n      dup3\n        /* \"#utility.yul\":19138:19152   */\n      add\n        /* \"#utility.yul\":19131:19183   */\n      mstore\n        /* \"#utility.yul\":19014:19190   */\n      pop\n      jump\t// out\n        /* \"#utility.yul\":19196:19562   */\n    tag_175:\n        /* \"#utility.yul\":19338:19341   */\n      0x00\n        /* \"#utility.yul\":19359:19426   */\n      tag_372\n        /* \"#utility.yul\":19423:19425   */\n      0x1a\n        /* \"#utility.yul\":19418:19421   */\n      dup4\n        /* \"#utility.yul\":19359:19426   */\n      tag_136\n      jump\t// in\n    tag_372:\n        /* \"#utility.yul\":19352:19426   */\n      swap2\n      pop\n        /* \"#utility.yul\":19435:19528   */\n      tag_373\n        /* \"#utility.yul\":19524:19527   */\n      dup3\n        /* \"#utility.yul\":19435:19528   */\n      tag_174\n      jump\t// in\n    tag_373:\n        /* \"#utility.yul\":19553:19555   */\n      0x20\n        /* \"#utility.yul\":19548:19551   */\n      dup3\n        /* \"#utility.yul\":19544:19556   */\n      add\n        /* \"#utility.yul\":19537:19556   */\n      swap1\n      pop\n        /* \"#utility.yul\":19196:19562   */\n      swap2\n      swap1\n      pop\n      jump\t// out\n        /* \"#utility.yul\":19568:19987   */\n    tag_112:\n        /* \"#utility.yul\":19734:19738   */\n      0x00\n        /* \"#utility.yul\":19772:19774   */\n      0x20\n        /* \"#utility.yul\":19761:19770   */\n      dup3\n        /* \"#utility.yul\":19757:19775   */\n      add\n        /* \"#utility.yul\":19749:19775   */\n      swap1\n      pop\n        /* \"#utility.yul\":19821:19830   */\n      dup2\n        /* \"#utility.yul\":19815:19819   */\n      dup2\n        /* \"#utility.yul\":19811:19831   */\n      sub\n        /* \"#utility.yul\":19807:19808   */\n      0x00\n        /* \"#utility.yul\":19796:19805   */\n      dup4\n        /* \"#utility.yul\":19792:19809   */\n      add\n        /* \"#utility.yul\":19785:19832   */\n      mstore\n        /* \"#utility.yul\":19849:19980   */\n      tag_375\n        /* \"#utility.yul\":19975:19979   */\n      dup2\n        /* \"#utility.yul\":19849:19980   */\n      tag_175\n      jump\t// in\n    tag_375:\n        /* \"#utility.yul\":19841:19980   */\n      swap1\n      pop\n        /* \"#utility.yul\":19568:19987   */\n      swap2\n      swap1\n      pop\n      jump\t// out\n        /* \"#utility.yul\":19993:20325   */\n    tag_118:\n        /* \"#utility.yul\":20114:20118   */\n      0x00\n        /* \"#utility.yul\":20152:20154   */\n      0x40\n        /* \"#utility.yul\":20141:20150   */\n      dup3\n        /* \"#utility.yul\":20137:20155   */\n      add\n        /* \"#utility.yul\":20129:20155   */\n      swap1\n      pop\n        /* \"#utility.yul\":20165:20236   */\n      tag_377\n        /* \"#utility.yul\":20233:20234   */\n      0x00\n        /* \"#utility.yul\":20222:20231   */\n      dup4\n        /* \"#utility.yul\":20218:20235   */\n      add\n        /* \"#utility.yul\":20209:20215   */\n      dup6\n        /* \"#utility.yul\":20165:20236   */\n      tag_142\n      jump\t// in\n    tag_377:\n        /* \"#utility.yul\":20246:20318   */\n      tag_378\n        /* \"#utility.yul\":20314:20316   */\n      0x20\n        /* \"#utility.yul\":20303:20312   */\n      dup4\n        /* \"#utility.yul\":20299:20317   */\n      add\n        /* \"#utility.yul\":20290:20296   */\n      dup5\n        /* \"#utility.yul\":20246:20318   */\n      tag_144\n      jump\t// in\n    tag_378:\n        /* \"#utility.yul\":19993:20325   */\n      swap4\n      swap3\n      pop\n      pop\n      pop\n      jump\t// out\n\n    auxdata: 0xa2646970667358221220ea0f8eae2e7145b3c4bb36758c65e023b593e719d017f0e185ffdaa13cd232e964736f6c63430008120033\n}\n",
				"bytecode": {
					"linkReferences": {},
					"object": "608060405260016000556000600260146101000a81548160ff02191690831515021790555034801561003057600080fd5b5033600260006101000a81548173ffffffffffffffffffffffffffffffffffffffff021916908373ffffffffffffffffffffffffffffffffffffffff160217905550611640806100816000396000f3fe60806040526004361061004a5760003560e01c80631144fd721461004f5780633153a15b146100785780637acc0b20146100a157806383197ef0146100e4578063d96a094a146100fb575b600080fd5b34801561005b57600080fd5b5061007660048036038101906100719190610b34565b610117565b005b34801561008457600080fd5b5061009f600480360381019061009a9190610ca7565b61036f565b005b3480156100ad57600080fd5b506100c860048036038101906100c39190610b34565b6105f5565b6040516100db9796959493929190610e3d565b60405180910390f35b3480156100f057600080fd5b506100f96107a4565b005b61011560048036038101906101109190610b34565b61086f565b005b600260149054906101000a900460ff1615610167576040517f08c379a000000000000000000000000000000000000000000000000000000000815260040161015e90610f06565b60405180910390fd5b3373ffffffffffffffffffffffffffffffffffffffff166001808361018c9190610f55565b8154811061019d5761019c610f89565b5b906000526020600020906006020160050160009054906101000a900473ffffffffffffffffffffffffffffffffffffffff1673ffffffffffffffffffffffffffffffffffffffff1614610225576040517f08c379a000000000000000000000000000000000000000000000000000000000815260040161021c90611004565b60405180910390fd5b6001806001836102359190610f55565b8154811061024657610245610f89565b5b906000526020600020906006020160050160146101000a81548160ff0219169083151502179055506001808261027c9190610f55565b8154811061028d5761028c610f89565b5b906000526020600020906006020160020160009054906101000a900473ffffffffffffffffffffffffffffffffffffffff1673ffffffffffffffffffffffffffffffffffffffff166108fc600180846102e69190610f55565b815481106102f7576102f6610f89565b5b9060005260206000209060060201600401549081150290604051600060405180830381858888f19350505050158015610334573d6000803e3d6000fd5b507f4b5e4108167a669a2da8b1edeb1bf605987224cec90eeca47f7f235104539f21816040516103649190611024565b60405180910390a150565b600260149054906101000a900460ff16156103bf576040517f08c379a00000000000000000000000000000000000000000000000000000000081526004016103b690610f06565b60405180910390fd5b60008111610402576040517f08c379a00000000000000000000000000000000000000000000000000000000081526004016103f9906110b1565b60405180910390fd5b61040a610a7f565b838160000181905250828160200181905250670de0b6b3a76400008261043091906110d1565b81608001818152505033816040019073ffffffffffffffffffffffffffffffffffffffff16908173ffffffffffffffffffffffffffffffffffffffff1681525050600054816060018181525050600181908060018154018082558091505060019003906000526020600020906006020160009091909190915060008201518160000190816104be919061131f565b5060208201518160010190816104d4919061131f565b5060408201518160020160006101000a81548173ffffffffffffffffffffffffffffffffffffffff021916908373ffffffffffffffffffffffffffffffffffffffff160217905550606082015181600301556080820151816004015560a08201518160050160006101000a81548173ffffffffffffffffffffffffffffffffffffffff021916908373ffffffffffffffffffffffffffffffffffffffff16021790555060c08201518160050160146101000a81548160ff02191690831515021790555050506000808154809291906105ab906113f1565b91905055507f2f2d57060110e728629fcdcfd43a3b0f571b51ca1899668910d777e935601e3e848260600151336040516105e793929190611439565b60405180910390a150505050565b6001818154811061060557600080fd5b906000526020600020906006020160009150905080600001805461062890611142565b80601f016020809104026020016040519081016040528092919081815260200182805461065490611142565b80156106a15780601f10610676576101008083540402835291602001916106a1565b820191906000526020600020905b81548152906001019060200180831161068457829003601f168201915b5050505050908060010180546106b690611142565b80601f01602080910402602001604051908101604052809291908181526020018280546106e290611142565b801561072f5780601f106107045761010080835404028352916020019161072f565b820191906000526020600020905b81548152906001019060200180831161071257829003601f168201915b5050505050908060020160009054906101000a900473ffffffffffffffffffffffffffffffffffffffff16908060030154908060040154908060050160009054906101000a900473ffffffffffffffffffffffffffffffffffffffff16908060050160149054906101000a900460ff16905087565b600260009054906101000a900473ffffffffffffffffffffffffffffffffffffffff1673ffffffffffffffffffffffffffffffffffffffff163373ffffffffffffffffffffffffffffffffffffffff1614610834576040517f08c379a000000000000000000000000000000000000000000000000000000000815260040161082b906114e9565b60405180910390fd5b600260009054906101000a900473ffffffffffffffffffffffffffffffffffffffff1673ffffffffffffffffffffffffffffffffffffffff16ff5b600260149054906101000a900460ff16156108bf576040517f08c379a00000000000000000000000000000000000000000000000000000000081526004016108b690610f06565b60405180910390fd5b34600180836108ce9190610f55565b815481106108df576108de610f89565b5b90600052602060002090600602016004015414610931576040517f08c379a000000000000000000000000000000000000000000000000000000000815260040161092890611555565b60405180910390fd5b3373ffffffffffffffffffffffffffffffffffffffff16600180836109569190610f55565b8154811061096757610966610f89565b5b906000526020600020906006020160020160009054906101000a900473ffffffffffffffffffffffffffffffffffffffff1673ffffffffffffffffffffffffffffffffffffffff16036109ef576040517f08c379a00000000000000000000000000000000000000000000000000000000081526004016109e6906115c1565b60405180910390fd5b3373ffffffffffffffffffffffffffffffffffffffff1660018083610a149190610f55565b81548110610a2557610a24610f89565b5b906000526020600020906006020160050160009054906101000a905050507f2c9b5e9655a41ab13c5183c231239df125ecbd546a947624c913cfd43094906e8133604051610a749291906115e1565b60405180910390a150565b6040518060e001604052806060815260200160608152602001600073ffffffffffffffffffffffffffffffffffffffff1681526020016000815260200160008152602001600073ffffffffffffffffffffffffffffffffffffffff1681526020016000151581525090565b6000604051905090565b600080fd5b600080fd5b6000819050919050565b610b1181610afe565b8114610b1c57600080fd5b50565b600081359050610b2e81610b08565b92915050565b600060208284031215610b4a57610b49610af4565b5b6000610b5884828501610b1f565b91505092915050565b600080fd5b600080fd5b6000601f19601f8301169050919050565b7f4e487b7100000000000000000000000000000000000000000000000000000000600052604160045260246000fd5b610bb482610b6b565b810181811067ffffffffffffffff82111715610bd357610bd2610b7c565b5b80604052505050565b6000610be6610aea565b9050610bf28282610bab565b919050565b600067ffffffffffffffff821115610c1257610c11610b7c565b5b610c1b82610b6b565b9050602081019050919050565b82818337600083830152505050565b6000610c4a610c4584610bf7565b610bdc565b905082815260208101848484011115610c6657610c65610b66565b5b610c71848285610c28565b509392505050565b600082601f830112610c8e57610c8d610b61565b5b8135610c9e848260208601610c37565b91505092915050565b600080600060608486031215610cc057610cbf610af4565b5b600084013567ffffffffffffffff811115610cde57610cdd610af9565b5b610cea86828701610c79565b935050602084013567ffffffffffffffff811115610d0b57610d0a610af9565b5b610d1786828701610c79565b9250506040610d2886828701610b1f565b9150509250925092565b600081519050919050565b600082825260208201905092915050565b60005b83811015610d6c578082015181840152602081019050610d51565b60008484015250505050565b6000610d8382610d32565b610d8d8185610d3d565b9350610d9d818560208601610d4e565b610da681610b6b565b840191505092915050565b600073ffffffffffffffffffffffffffffffffffffffff82169050919050565b6000610ddc82610db1565b9050919050565b610dec81610dd1565b82525050565b610dfb81610afe565b82525050565b6000610e0c82610db1565b9050919050565b610e1c81610e01565b82525050565b60008115159050919050565b610e3781610e22565b82525050565b600060e0820190508181036000830152610e57818a610d78565b90508181036020830152610e6b8189610d78565b9050610e7a6040830188610de3565b610e876060830187610df2565b610e946080830186610df2565b610ea160a0830185610e13565b610eae60c0830184610e2e565b98975050505050505050565b7f436f6e747261637420646f6573206e6f74206578697374000000000000000000600082015250565b6000610ef0601783610d3d565b9150610efb82610eba565b602082019050919050565b60006020820190508181036000830152610f1f81610ee3565b9050919050565b7f4e487b7100000000000000000000000000000000000000000000000000000000600052601160045260246000fd5b6000610f6082610afe565b9150610f6b83610afe565b9250828203905081811115610f8357610f82610f26565b5b92915050565b7f4e487b7100000000000000000000000000000000000000000000000000000000600052603260045260246000fd5b7f4f6e6c792062757965722063616e20636f6e6669726d00000000000000000000600082015250565b6000610fee601683610d3d565b9150610ff982610fb8565b602082019050919050565b6000602082019050818103600083015261101d81610fe1565b9050919050565b60006020820190506110396000830184610df2565b92915050565b7f50726963652073686f756c642062652067726561746572207468616e207a657260008201527f6f00000000000000000000000000000000000000000000000000000000000000602082015250565b600061109b602183610d3d565b91506110a68261103f565b604082019050919050565b600060208201905081810360008301526110ca8161108e565b9050919050565b60006110dc82610afe565b91506110e783610afe565b92508282026110f581610afe565b9150828204841483151761110c5761110b610f26565b5b5092915050565b7f4e487b7100000000000000000000000000000000000000000000000000000000600052602260045260246000fd5b6000600282049050600182168061115a57607f821691505b60208210810361116d5761116c611113565b5b50919050565b60008190508160005260206000209050919050565b60006020601f8301049050919050565b600082821b905092915050565b6000600883026111d57fffffffffffffffffffffffffffffffffffffffffffffffffffffffffffffffff82611198565b6111df8683611198565b95508019841693508086168417925050509392505050565b6000819050919050565b600061121c61121761121284610afe565b6111f7565b610afe565b9050919050565b6000819050919050565b61123683611201565b61124a61124282611223565b8484546111a5565b825550505050565b600090565b61125f611252565b61126a81848461122d565b505050565b5b8181101561128e57611283600082611257565b600181019050611270565b5050565b601f8211156112d3576112a481611173565b6112ad84611188565b810160208510156112bc578190505b6112d06112c885611188565b83018261126f565b50505b505050565b600082821c905092915050565b60006112f6600019846008026112d8565b1980831691505092915050565b600061130f83836112e5565b9150826002028217905092915050565b61132882610d32565b67ffffffffffffffff81111561134157611340610b7c565b5b61134b8254611142565b611356828285611292565b600060209050601f8311600181146113895760008415611377578287015190505b6113818582611303565b8655506113e9565b601f19841661139786611173565b60005b828110156113bf5784890151825560018201915060208501945060208101905061139a565b868310156113dc57848901516113d8601f8916826112e5565b8355505b6001600288020188555050505b505050505050565b60006113fc82610afe565b91507fffffffffffffffffffffffffffffffffffffffffffffffffffffffffffffffff820361142e5761142d610f26565b5b600182019050919050565b600060608201905081810360008301526114538186610d78565b90506114626020830185610df2565b61146f6040830184610e13565b949350505050565b7f6f6e6c79206d616e616765722063616e2063616c6c20746869732066756e637460008201527f696f6e0000000000000000000000000000000000000000000000000000000000602082015250565b60006114d3602383610d3d565b91506114de82611477565b604082019050919050565b60006020820190508181036000830152611502816114c6565b9050919050565b7f506c656173652050617920746865206578616374207072696365000000000000600082015250565b600061153f601a83610d3d565b915061154a82611509565b602082019050919050565b6000602082019050818103600083015261156e81611532565b9050919050565b7f53656c6c65722063616e6e6f7420626520746865206275796572000000000000600082015250565b60006115ab601a83610d3d565b91506115b682611575565b602082019050919050565b600060208201905081810360008301526115da8161159e565b9050919050565b60006040820190506115f66000830185610df2565b6116036020830184610e13565b939250505056fea2646970667358221220ea0f8eae2e7145b3c4bb36758c65e023b593e719d017f0e185ffdaa13cd232e964736f6c63430008120033",
					"opcodes": "PUSH1 0x80 PUSH1 0x40 MSTORE PUSH1 0x1 PUSH1 0x0 SSTORE PUSH1 0x0 PUSH1 0x2 PUSH1 0x14 PUSH2 0x100 EXP DUP2 SLOAD DUP2 PUSH1 0xFF MUL NOT AND SWAP1 DUP4 ISZERO ISZERO MUL OR SWAP1 SSTORE POP CALLVALUE DUP1 ISZERO PUSH2 0x30 JUMPI PUSH1 0x0 DUP1 REVERT JUMPDEST POP CALLER PUSH1 0x2 PUSH1 0x0 PUSH2 0x100 EXP DUP2 SLOAD DUP2 PUSH20 0xFFFFFFFFFFFFFFFFFFFFFFFFFFFFFFFFFFFFFFFF MUL NOT AND SWAP1 DUP4 PUSH20 0xFFFFFFFFFFFFFFFFFFFFFFFFFFFFFFFFFFFFFFFF AND MUL OR SWAP1 SSTORE POP PUSH2 0x1640 DUP1 PUSH2 0x81 PUSH1 0x0 CODECOPY PUSH1 0x0 RETURN INVALID PUSH1 0x80 PUSH1 0x40 MSTORE PUSH1 0x4 CALLDATASIZE LT PUSH2 0x4A JUMPI PUSH1 0x0 CALLDATALOAD PUSH1 0xE0 SHR DUP1 PUSH4 0x1144FD72 EQ PUSH2 0x4F JUMPI DUP1 PUSH4 0x3153A15B EQ PUSH2 0x78 JUMPI DUP1 PUSH4 0x7ACC0B20 EQ PUSH2 0xA1 JUMPI DUP1 PUSH4 0x83197EF0 EQ PUSH2 0xE4 JUMPI DUP1 PUSH4 0xD96A094A EQ PUSH2 0xFB JUMPI JUMPDEST PUSH1 0x0 DUP1 REVERT JUMPDEST CALLVALUE DUP1 ISZERO PUSH2 0x5B JUMPI PUSH1 0x0 DUP1 REVERT JUMPDEST POP PUSH2 0x76 PUSH1 0x4 DUP1 CALLDATASIZE SUB DUP2 ADD SWAP1 PUSH2 0x71 SWAP2 SWAP1 PUSH2 0xB34 JUMP JUMPDEST PUSH2 0x117 JUMP JUMPDEST STOP JUMPDEST CALLVALUE DUP1 ISZERO PUSH2 0x84 JUMPI PUSH1 0x0 DUP1 REVERT JUMPDEST POP PUSH2 0x9F PUSH1 0x4 DUP1 CALLDATASIZE SUB DUP2 ADD SWAP1 PUSH2 0x9A SWAP2 SWAP1 PUSH2 0xCA7 JUMP JUMPDEST PUSH2 0x36F JUMP JUMPDEST STOP JUMPDEST CALLVALUE DUP1 ISZERO PUSH2 0xAD JUMPI PUSH1 0x0 DUP1 REVERT JUMPDEST POP PUSH2 0xC8 PUSH1 0x4 DUP1 CALLDATASIZE SUB DUP2 ADD SWAP1 PUSH2 0xC3 SWAP2 SWAP1 PUSH2 0xB34 JUMP JUMPDEST PUSH2 0x5F5 JUMP JUMPDEST PUSH1 0x40 MLOAD PUSH2 0xDB SWAP8 SWAP7 SWAP6 SWAP5 SWAP4 SWAP3 SWAP2 SWAP1 PUSH2 0xE3D JUMP JUMPDEST PUSH1 0x40 MLOAD DUP1 SWAP2 SUB SWAP1 RETURN JUMPDEST CALLVALUE DUP1 ISZERO PUSH2 0xF0 JUMPI PUSH1 0x0 DUP1 REVERT JUMPDEST POP PUSH2 0xF9 PUSH2 0x7A4 JUMP JUMPDEST STOP JUMPDEST PUSH2 0x115 PUSH1 0x4 DUP1 CALLDATASIZE SUB DUP2 ADD SWAP1 PUSH2 0x110 SWAP2 SWAP1 PUSH2 0xB34 JUMP JUMPDEST PUSH2 0x86F JUMP JUMPDEST STOP JUMPDEST PUSH1 0x2 PUSH1 0x14 SWAP1 SLOAD SWAP1 PUSH2 0x100 EXP SWAP1 DIV PUSH1 0xFF AND ISZERO PUSH2 0x167 JUMPI PUSH1 0x40 MLOAD PUSH32 0x8C379A000000000000000000000000000000000000000000000000000000000 DUP2 MSTORE PUSH1 0x4 ADD PUSH2 0x15E SWAP1 PUSH2 0xF06 JUMP JUMPDEST PUSH1 0x40 MLOAD DUP1 SWAP2 SUB SWAP1 REVERT JUMPDEST CALLER PUSH20 0xFFFFFFFFFFFFFFFFFFFFFFFFFFFFFFFFFFFFFFFF AND PUSH1 0x1 DUP1 DUP4 PUSH2 0x18C SWAP2 SWAP1 PUSH2 0xF55 JUMP JUMPDEST DUP2 SLOAD DUP2 LT PUSH2 0x19D JUMPI PUSH2 0x19C PUSH2 0xF89 JUMP JUMPDEST JUMPDEST SWAP1 PUSH1 0x0 MSTORE PUSH1 0x20 PUSH1 0x0 KECCAK256 SWAP1 PUSH1 0x6 MUL ADD PUSH1 0x5 ADD PUSH1 0x0 SWAP1 SLOAD SWAP1 PUSH2 0x100 EXP SWAP1 DIV PUSH20 0xFFFFFFFFFFFFFFFFFFFFFFFFFFFFFFFFFFFFFFFF AND PUSH20 0xFFFFFFFFFFFFFFFFFFFFFFFFFFFFFFFFFFFFFFFF AND EQ PUSH2 0x225 JUMPI PUSH1 0x40 MLOAD PUSH32 0x8C379A000000000000000000000000000000000000000000000000000000000 DUP2 MSTORE PUSH1 0x4 ADD PUSH2 0x21C SWAP1 PUSH2 0x1004 JUMP JUMPDEST PUSH1 0x40 MLOAD DUP1 SWAP2 SUB SWAP1 REVERT JUMPDEST PUSH1 0x1 DUP1 PUSH1 0x1 DUP4 PUSH2 0x235 SWAP2 SWAP1 PUSH2 0xF55 JUMP JUMPDEST DUP2 SLOAD DUP2 LT PUSH2 0x246 JUMPI PUSH2 0x245 PUSH2 0xF89 JUMP JUMPDEST JUMPDEST SWAP1 PUSH1 0x0 MSTORE PUSH1 0x20 PUSH1 0x0 KECCAK256 SWAP1 PUSH1 0x6 MUL ADD PUSH1 0x5 ADD PUSH1 0x14 PUSH2 0x100 EXP DUP2 SLOAD DUP2 PUSH1 0xFF MUL NOT AND SWAP1 DUP4 ISZERO ISZERO MUL OR SWAP1 SSTORE POP PUSH1 0x1 DUP1 DUP3 PUSH2 0x27C SWAP2 SWAP1 PUSH2 0xF55 JUMP JUMPDEST DUP2 SLOAD DUP2 LT PUSH2 0x28D JUMPI PUSH2 0x28C PUSH2 0xF89 JUMP JUMPDEST JUMPDEST SWAP1 PUSH1 0x0 MSTORE PUSH1 0x20 PUSH1 0x0 KECCAK256 SWAP1 PUSH1 0x6 MUL ADD PUSH1 0x2 ADD PUSH1 0x0 SWAP1 SLOAD SWAP1 PUSH2 0x100 EXP SWAP1 DIV PUSH20 0xFFFFFFFFFFFFFFFFFFFFFFFFFFFFFFFFFFFFFFFF AND PUSH20 0xFFFFFFFFFFFFFFFFFFFFFFFFFFFFFFFFFFFFFFFF AND PUSH2 0x8FC PUSH1 0x1 DUP1 DUP5 PUSH2 0x2E6 SWAP2 SWAP1 PUSH2 0xF55 JUMP JUMPDEST DUP2 SLOAD DUP2 LT PUSH2 0x2F7 JUMPI PUSH2 0x2F6 PUSH2 0xF89 JUMP JUMPDEST JUMPDEST SWAP1 PUSH1 0x0 MSTORE PUSH1 0x20 PUSH1 0x0 KECCAK256 SWAP1 PUSH1 0x6 MUL ADD PUSH1 0x4 ADD SLOAD SWAP1 DUP2 ISZERO MUL SWAP1 PUSH1 0x40 MLOAD PUSH1 0x0 PUSH1 0x40 MLOAD DUP1 DUP4 SUB DUP2 DUP6 DUP9 DUP9 CALL SWAP4 POP POP POP POP ISZERO DUP1 ISZERO PUSH2 0x334 JUMPI RETURNDATASIZE PUSH1 0x0 DUP1 RETURNDATACOPY RETURNDATASIZE PUSH1 0x0 REVERT JUMPDEST POP PUSH32 0x4B5E4108167A669A2DA8B1EDEB1BF605987224CEC90EECA47F7F235104539F21 DUP2 PUSH1 0x40 MLOAD PUSH2 0x364 SWAP2 SWAP1 PUSH2 0x1024 JUMP JUMPDEST PUSH1 0x40 MLOAD DUP1 SWAP2 SUB SWAP1 LOG1 POP JUMP JUMPDEST PUSH1 0x2 PUSH1 0x14 SWAP1 SLOAD SWAP1 PUSH2 0x100 EXP SWAP1 DIV PUSH1 0xFF AND ISZERO PUSH2 0x3BF JUMPI PUSH1 0x40 MLOAD PUSH32 0x8C379A000000000000000000000000000000000000000000000000000000000 DUP2 MSTORE PUSH1 0x4 ADD PUSH2 0x3B6 SWAP1 PUSH2 0xF06 JUMP JUMPDEST PUSH1 0x40 MLOAD DUP1 SWAP2 SUB SWAP1 REVERT JUMPDEST PUSH1 0x0 DUP2 GT PUSH2 0x402 JUMPI PUSH1 0x40 MLOAD PUSH32 0x8C379A000000000000000000000000000000000000000000000000000000000 DUP2 MSTORE PUSH1 0x4 ADD PUSH2 0x3F9 SWAP1 PUSH2 0x10B1 JUMP JUMPDEST PUSH1 0x40 MLOAD DUP1 SWAP2 SUB SWAP1 REVERT JUMPDEST PUSH2 0x40A PUSH2 0xA7F JUMP JUMPDEST DUP4 DUP2 PUSH1 0x0 ADD DUP2 SWAP1 MSTORE POP DUP3 DUP2 PUSH1 0x20 ADD DUP2 SWAP1 MSTORE POP PUSH8 0xDE0B6B3A7640000 DUP3 PUSH2 0x430 SWAP2 SWAP1 PUSH2 0x10D1 JUMP JUMPDEST DUP2 PUSH1 0x80 ADD DUP2 DUP2 MSTORE POP POP CALLER DUP2 PUSH1 0x40 ADD SWAP1 PUSH20 0xFFFFFFFFFFFFFFFFFFFFFFFFFFFFFFFFFFFFFFFF AND SWAP1 DUP2 PUSH20 0xFFFFFFFFFFFFFFFFFFFFFFFFFFFFFFFFFFFFFFFF AND DUP2 MSTORE POP POP PUSH1 0x0 SLOAD DUP2 PUSH1 0x60 ADD DUP2 DUP2 MSTORE POP POP PUSH1 0x1 DUP2 SWAP1 DUP1 PUSH1 0x1 DUP2 SLOAD ADD DUP1 DUP3 SSTORE DUP1 SWAP2 POP POP PUSH1 0x1 SWAP1 SUB SWAP1 PUSH1 0x0 MSTORE PUSH1 0x20 PUSH1 0x0 KECCAK256 SWAP1 PUSH1 0x6 MUL ADD PUSH1 0x0 SWAP1 SWAP2 SWAP1 SWAP2 SWAP1 SWAP2 POP PUSH1 0x0 DUP3 ADD MLOAD DUP2 PUSH1 0x0 ADD SWAP1 DUP2 PUSH2 0x4BE SWAP2 SWAP1 PUSH2 0x131F JUMP JUMPDEST POP PUSH1 0x20 DUP3 ADD MLOAD DUP2 PUSH1 0x1 ADD SWAP1 DUP2 PUSH2 0x4D4 SWAP2 SWAP1 PUSH2 0x131F JUMP JUMPDEST POP PUSH1 0x40 DUP3 ADD MLOAD DUP2 PUSH1 0x2 ADD PUSH1 0x0 PUSH2 0x100 EXP DUP2 SLOAD DUP2 PUSH20 0xFFFFFFFFFFFFFFFFFFFFFFFFFFFFFFFFFFFFFFFF MUL NOT AND SWAP1 DUP4 PUSH20 0xFFFFFFFFFFFFFFFFFFFFFFFFFFFFFFFFFFFFFFFF AND MUL OR SWAP1 SSTORE POP PUSH1 0x60 DUP3 ADD MLOAD DUP2 PUSH1 0x3 ADD SSTORE PUSH1 0x80 DUP3 ADD MLOAD DUP2 PUSH1 0x4 ADD SSTORE PUSH1 0xA0 DUP3 ADD MLOAD DUP2 PUSH1 0x5 ADD PUSH1 0x0 PUSH2 0x100 EXP DUP2 SLOAD DUP2 PUSH20 0xFFFFFFFFFFFFFFFFFFFFFFFFFFFFFFFFFFFFFFFF MUL NOT AND SWAP1 DUP4 PUSH20 0xFFFFFFFFFFFFFFFFFFFFFFFFFFFFFFFFFFFFFFFF AND MUL OR SWAP1 SSTORE POP PUSH1 0xC0 DUP3 ADD MLOAD DUP2 PUSH1 0x5 ADD PUSH1 0x14 PUSH2 0x100 EXP DUP2 SLOAD DUP2 PUSH1 0xFF MUL NOT AND SWAP1 DUP4 ISZERO ISZERO MUL OR SWAP1 SSTORE POP POP POP PUSH1 0x0 DUP1 DUP2 SLOAD DUP1 SWAP3 SWAP2 SWAP1 PUSH2 0x5AB SWAP1 PUSH2 0x13F1 JUMP JUMPDEST SWAP2 SWAP1 POP SSTORE POP PUSH32 0x2F2D57060110E728629FCDCFD43A3B0F571B51CA1899668910D777E935601E3E DUP5 DUP3 PUSH1 0x60 ADD MLOAD CALLER PUSH1 0x40 MLOAD PUSH2 0x5E7 SWAP4 SWAP3 SWAP2 SWAP1 PUSH2 0x1439 JUMP JUMPDEST PUSH1 0x40 MLOAD DUP1 SWAP2 SUB SWAP1 LOG1 POP POP POP POP JUMP JUMPDEST PUSH1 0x1 DUP2 DUP2 SLOAD DUP2 LT PUSH2 0x605 JUMPI PUSH1 0x0 DUP1 REVERT JUMPDEST SWAP1 PUSH1 0x0 MSTORE PUSH1 0x20 PUSH1 0x0 KECCAK256 SWAP1 PUSH1 0x6 MUL ADD PUSH1 0x0 SWAP2 POP SWAP1 POP DUP1 PUSH1 0x0 ADD DUP1 SLOAD PUSH2 0x628 SWAP1 PUSH2 0x1142 JUMP JUMPDEST DUP1 PUSH1 0x1F ADD PUSH1 0x20 DUP1 SWAP2 DIV MUL PUSH1 0x20 ADD PUSH1 0x40 MLOAD SWAP1 DUP2 ADD PUSH1 0x40 MSTORE DUP1 SWAP3 SWAP2 SWAP1 DUP2 DUP2 MSTORE PUSH1 0x20 ADD DUP3 DUP1 SLOAD PUSH2 0x654 SWAP1 PUSH2 0x1142 JUMP JUMPDEST DUP1 ISZERO PUSH2 0x6A1 JUMPI DUP1 PUSH1 0x1F LT PUSH2 0x676 JUMPI PUSH2 0x100 DUP1 DUP4 SLOAD DIV MUL DUP4 MSTORE SWAP2 PUSH1 0x20 ADD SWAP2 PUSH2 0x6A1 JUMP JUMPDEST DUP3 ADD SWAP2 SWAP1 PUSH1 0x0 MSTORE PUSH1 0x20 PUSH1 0x0 KECCAK256 SWAP1 JUMPDEST DUP2 SLOAD DUP2 MSTORE SWAP1 PUSH1 0x1 ADD SWAP1 PUSH1 0x20 ADD DUP1 DUP4 GT PUSH2 0x684 JUMPI DUP3 SWAP1 SUB PUSH1 0x1F AND DUP3 ADD SWAP2 JUMPDEST POP POP POP POP POP SWAP1 DUP1 PUSH1 0x1 ADD DUP1 SLOAD PUSH2 0x6B6 SWAP1 PUSH2 0x1142 JUMP JUMPDEST DUP1 PUSH1 0x1F ADD PUSH1 0x20 DUP1 SWAP2 DIV MUL PUSH1 0x20 ADD PUSH1 0x40 MLOAD SWAP1 DUP2 ADD PUSH1 0x40 MSTORE DUP1 SWAP3 SWAP2 SWAP1 DUP2 DUP2 MSTORE PUSH1 0x20 ADD DUP3 DUP1 SLOAD PUSH2 0x6E2 SWAP1 PUSH2 0x1142 JUMP JUMPDEST DUP1 ISZERO PUSH2 0x72F JUMPI DUP1 PUSH1 0x1F LT PUSH2 0x704 JUMPI PUSH2 0x100 DUP1 DUP4 SLOAD DIV MUL DUP4 MSTORE SWAP2 PUSH1 0x20 ADD SWAP2 PUSH2 0x72F JUMP JUMPDEST DUP3 ADD SWAP2 SWAP1 PUSH1 0x0 MSTORE PUSH1 0x20 PUSH1 0x0 KECCAK256 SWAP1 JUMPDEST DUP2 SLOAD DUP2 MSTORE SWAP1 PUSH1 0x1 ADD SWAP1 PUSH1 0x20 ADD DUP1 DUP4 GT PUSH2 0x712 JUMPI DUP3 SWAP1 SUB PUSH1 0x1F AND DUP3 ADD SWAP2 JUMPDEST POP POP POP POP POP SWAP1 DUP1 PUSH1 0x2 ADD PUSH1 0x0 SWAP1 SLOAD SWAP1 PUSH2 0x100 EXP SWAP1 DIV PUSH20 0xFFFFFFFFFFFFFFFFFFFFFFFFFFFFFFFFFFFFFFFF AND SWAP1 DUP1 PUSH1 0x3 ADD SLOAD SWAP1 DUP1 PUSH1 0x4 ADD SLOAD SWAP1 DUP1 PUSH1 0x5 ADD PUSH1 0x0 SWAP1 SLOAD SWAP1 PUSH2 0x100 EXP SWAP1 DIV PUSH20 0xFFFFFFFFFFFFFFFFFFFFFFFFFFFFFFFFFFFFFFFF AND SWAP1 DUP1 PUSH1 0x5 ADD PUSH1 0x14 SWAP1 SLOAD SWAP1 PUSH2 0x100 EXP SWAP1 DIV PUSH1 0xFF AND SWAP1 POP DUP8 JUMP JUMPDEST PUSH1 0x2 PUSH1 0x0 SWAP1 SLOAD SWAP1 PUSH2 0x100 EXP SWAP1 DIV PUSH20 0xFFFFFFFFFFFFFFFFFFFFFFFFFFFFFFFFFFFFFFFF AND PUSH20 0xFFFFFFFFFFFFFFFFFFFFFFFFFFFFFFFFFFFFFFFF AND CALLER PUSH20 0xFFFFFFFFFFFFFFFFFFFFFFFFFFFFFFFFFFFFFFFF AND EQ PUSH2 0x834 JUMPI PUSH1 0x40 MLOAD PUSH32 0x8C379A000000000000000000000000000000000000000000000000000000000 DUP2 MSTORE PUSH1 0x4 ADD PUSH2 0x82B SWAP1 PUSH2 0x14E9 JUMP JUMPDEST PUSH1 0x40 MLOAD DUP1 SWAP2 SUB SWAP1 REVERT JUMPDEST PUSH1 0x2 PUSH1 0x0 SWAP1 SLOAD SWAP1 PUSH2 0x100 EXP SWAP1 DIV PUSH20 0xFFFFFFFFFFFFFFFFFFFFFFFFFFFFFFFFFFFFFFFF AND PUSH20 0xFFFFFFFFFFFFFFFFFFFFFFFFFFFFFFFFFFFFFFFF AND SELFDESTRUCT JUMPDEST PUSH1 0x2 PUSH1 0x14 SWAP1 SLOAD SWAP1 PUSH2 0x100 EXP SWAP1 DIV PUSH1 0xFF AND ISZERO PUSH2 0x8BF JUMPI PUSH1 0x40 MLOAD PUSH32 0x8C379A000000000000000000000000000000000000000000000000000000000 DUP2 MSTORE PUSH1 0x4 ADD PUSH2 0x8B6 SWAP1 PUSH2 0xF06 JUMP JUMPDEST PUSH1 0x40 MLOAD DUP1 SWAP2 SUB SWAP1 REVERT JUMPDEST CALLVALUE PUSH1 0x1 DUP1 DUP4 PUSH2 0x8CE SWAP2 SWAP1 PUSH2 0xF55 JUMP JUMPDEST DUP2 SLOAD DUP2 LT PUSH2 0x8DF JUMPI PUSH2 0x8DE PUSH2 0xF89 JUMP JUMPDEST JUMPDEST SWAP1 PUSH1 0x0 MSTORE PUSH1 0x20 PUSH1 0x0 KECCAK256 SWAP1 PUSH1 0x6 MUL ADD PUSH1 0x4 ADD SLOAD EQ PUSH2 0x931 JUMPI PUSH1 0x40 MLOAD PUSH32 0x8C379A000000000000000000000000000000000000000000000000000000000 DUP2 MSTORE PUSH1 0x4 ADD PUSH2 0x928 SWAP1 PUSH2 0x1555 JUMP JUMPDEST PUSH1 0x40 MLOAD DUP1 SWAP2 SUB SWAP1 REVERT JUMPDEST CALLER PUSH20 0xFFFFFFFFFFFFFFFFFFFFFFFFFFFFFFFFFFFFFFFF AND PUSH1 0x1 DUP1 DUP4 PUSH2 0x956 SWAP2 SWAP1 PUSH2 0xF55 JUMP JUMPDEST DUP2 SLOAD DUP2 LT PUSH2 0x967 JUMPI PUSH2 0x966 PUSH2 0xF89 JUMP JUMPDEST JUMPDEST SWAP1 PUSH1 0x0 MSTORE PUSH1 0x20 PUSH1 0x0 KECCAK256 SWAP1 PUSH1 0x6 MUL ADD PUSH1 0x2 ADD PUSH1 0x0 SWAP1 SLOAD SWAP1 PUSH2 0x100 EXP SWAP1 DIV PUSH20 0xFFFFFFFFFFFFFFFFFFFFFFFFFFFFFFFFFFFFFFFF AND PUSH20 0xFFFFFFFFFFFFFFFFFFFFFFFFFFFFFFFFFFFFFFFF AND SUB PUSH2 0x9EF JUMPI PUSH1 0x40 MLOAD PUSH32 0x8C379A000000000000000000000000000000000000000000000000000000000 DUP2 MSTORE PUSH1 0x4 ADD PUSH2 0x9E6 SWAP1 PUSH2 0x15C1 JUMP JUMPDEST PUSH1 0x40 MLOAD DUP1 SWAP2 SUB SWAP1 REVERT JUMPDEST CALLER PUSH20 0xFFFFFFFFFFFFFFFFFFFFFFFFFFFFFFFFFFFFFFFF AND PUSH1 0x1 DUP1 DUP4 PUSH2 0xA14 SWAP2 SWAP1 PUSH2 0xF55 JUMP JUMPDEST DUP2 SLOAD DUP2 LT PUSH2 0xA25 JUMPI PUSH2 0xA24 PUSH2 0xF89 JUMP JUMPDEST JUMPDEST SWAP1 PUSH1 0x0 MSTORE PUSH1 0x20 PUSH1 0x0 KECCAK256 SWAP1 PUSH1 0x6 MUL ADD PUSH1 0x5 ADD PUSH1 0x0 SWAP1 SLOAD SWAP1 PUSH2 0x100 EXP SWAP1 POP POP POP PUSH32 0x2C9B5E9655A41AB13C5183C231239DF125ECBD546A947624C913CFD43094906E DUP2 CALLER PUSH1 0x40 MLOAD PUSH2 0xA74 SWAP3 SWAP2 SWAP1 PUSH2 0x15E1 JUMP JUMPDEST PUSH1 0x40 MLOAD DUP1 SWAP2 SUB SWAP1 LOG1 POP JUMP JUMPDEST PUSH1 0x40 MLOAD DUP1 PUSH1 0xE0 ADD PUSH1 0x40 MSTORE DUP1 PUSH1 0x60 DUP2 MSTORE PUSH1 0x20 ADD PUSH1 0x60 DUP2 MSTORE PUSH1 0x20 ADD PUSH1 0x0 PUSH20 0xFFFFFFFFFFFFFFFFFFFFFFFFFFFFFFFFFFFFFFFF AND DUP2 MSTORE PUSH1 0x20 ADD PUSH1 0x0 DUP2 MSTORE PUSH1 0x20 ADD PUSH1 0x0 DUP2 MSTORE PUSH1 0x20 ADD PUSH1 0x0 PUSH20 0xFFFFFFFFFFFFFFFFFFFFFFFFFFFFFFFFFFFFFFFF AND DUP2 MSTORE PUSH1 0x20 ADD PUSH1 0x0 ISZERO ISZERO DUP2 MSTORE POP SWAP1 JUMP JUMPDEST PUSH1 0x0 PUSH1 0x40 MLOAD SWAP1 POP SWAP1 JUMP JUMPDEST PUSH1 0x0 DUP1 REVERT JUMPDEST PUSH1 0x0 DUP1 REVERT JUMPDEST PUSH1 0x0 DUP2 SWAP1 POP SWAP2 SWAP1 POP JUMP JUMPDEST PUSH2 0xB11 DUP2 PUSH2 0xAFE JUMP JUMPDEST DUP2 EQ PUSH2 0xB1C JUMPI PUSH1 0x0 DUP1 REVERT JUMPDEST POP JUMP JUMPDEST PUSH1 0x0 DUP2 CALLDATALOAD SWAP1 POP PUSH2 0xB2E DUP2 PUSH2 0xB08 JUMP JUMPDEST SWAP3 SWAP2 POP POP JUMP JUMPDEST PUSH1 0x0 PUSH1 0x20 DUP3 DUP5 SUB SLT ISZERO PUSH2 0xB4A JUMPI PUSH2 0xB49 PUSH2 0xAF4 JUMP JUMPDEST JUMPDEST PUSH1 0x0 PUSH2 0xB58 DUP5 DUP3 DUP6 ADD PUSH2 0xB1F JUMP JUMPDEST SWAP2 POP POP SWAP3 SWAP2 POP POP JUMP JUMPDEST PUSH1 0x0 DUP1 REVERT JUMPDEST PUSH1 0x0 DUP1 REVERT JUMPDEST PUSH1 0x0 PUSH1 0x1F NOT PUSH1 0x1F DUP4 ADD AND SWAP1 POP SWAP2 SWAP1 POP JUMP JUMPDEST PUSH32 0x4E487B7100000000000000000000000000000000000000000000000000000000 PUSH1 0x0 MSTORE PUSH1 0x41 PUSH1 0x4 MSTORE PUSH1 0x24 PUSH1 0x0 REVERT JUMPDEST PUSH2 0xBB4 DUP3 PUSH2 0xB6B JUMP JUMPDEST DUP2 ADD DUP2 DUP2 LT PUSH8 0xFFFFFFFFFFFFFFFF DUP3 GT OR ISZERO PUSH2 0xBD3 JUMPI PUSH2 0xBD2 PUSH2 0xB7C JUMP JUMPDEST JUMPDEST DUP1 PUSH1 0x40 MSTORE POP POP POP JUMP JUMPDEST PUSH1 0x0 PUSH2 0xBE6 PUSH2 0xAEA JUMP JUMPDEST SWAP1 POP PUSH2 0xBF2 DUP3 DUP3 PUSH2 0xBAB JUMP JUMPDEST SWAP2 SWAP1 POP JUMP JUMPDEST PUSH1 0x0 PUSH8 0xFFFFFFFFFFFFFFFF DUP3 GT ISZERO PUSH2 0xC12 JUMPI PUSH2 0xC11 PUSH2 0xB7C JUMP JUMPDEST JUMPDEST PUSH2 0xC1B DUP3 PUSH2 0xB6B JUMP JUMPDEST SWAP1 POP PUSH1 0x20 DUP2 ADD SWAP1 POP SWAP2 SWAP1 POP JUMP JUMPDEST DUP3 DUP2 DUP4 CALLDATACOPY PUSH1 0x0 DUP4 DUP4 ADD MSTORE POP POP POP JUMP JUMPDEST PUSH1 0x0 PUSH2 0xC4A PUSH2 0xC45 DUP5 PUSH2 0xBF7 JUMP JUMPDEST PUSH2 0xBDC JUMP JUMPDEST SWAP1 POP DUP3 DUP2 MSTORE PUSH1 0x20 DUP2 ADD DUP5 DUP5 DUP5 ADD GT ISZERO PUSH2 0xC66 JUMPI PUSH2 0xC65 PUSH2 0xB66 JUMP JUMPDEST JUMPDEST PUSH2 0xC71 DUP5 DUP3 DUP6 PUSH2 0xC28 JUMP JUMPDEST POP SWAP4 SWAP3 POP POP POP JUMP JUMPDEST PUSH1 0x0 DUP3 PUSH1 0x1F DUP4 ADD SLT PUSH2 0xC8E JUMPI PUSH2 0xC8D PUSH2 0xB61 JUMP JUMPDEST JUMPDEST DUP2 CALLDATALOAD PUSH2 0xC9E DUP5 DUP3 PUSH1 0x20 DUP7 ADD PUSH2 0xC37 JUMP JUMPDEST SWAP2 POP POP SWAP3 SWAP2 POP POP JUMP JUMPDEST PUSH1 0x0 DUP1 PUSH1 0x0 PUSH1 0x60 DUP5 DUP7 SUB SLT ISZERO PUSH2 0xCC0 JUMPI PUSH2 0xCBF PUSH2 0xAF4 JUMP JUMPDEST JUMPDEST PUSH1 0x0 DUP5 ADD CALLDATALOAD PUSH8 0xFFFFFFFFFFFFFFFF DUP2 GT ISZERO PUSH2 0xCDE JUMPI PUSH2 0xCDD PUSH2 0xAF9 JUMP JUMPDEST JUMPDEST PUSH2 0xCEA DUP7 DUP3 DUP8 ADD PUSH2 0xC79 JUMP JUMPDEST SWAP4 POP POP PUSH1 0x20 DUP5 ADD CALLDATALOAD PUSH8 0xFFFFFFFFFFFFFFFF DUP2 GT ISZERO PUSH2 0xD0B JUMPI PUSH2 0xD0A PUSH2 0xAF9 JUMP JUMPDEST JUMPDEST PUSH2 0xD17 DUP7 DUP3 DUP8 ADD PUSH2 0xC79 JUMP JUMPDEST SWAP3 POP POP PUSH1 0x40 PUSH2 0xD28 DUP7 DUP3 DUP8 ADD PUSH2 0xB1F JUMP JUMPDEST SWAP2 POP POP SWAP3 POP SWAP3 POP SWAP3 JUMP JUMPDEST PUSH1 0x0 DUP2 MLOAD SWAP1 POP SWAP2 SWAP1 POP JUMP JUMPDEST PUSH1 0x0 DUP3 DUP3 MSTORE PUSH1 0x20 DUP3 ADD SWAP1 POP SWAP3 SWAP2 POP POP JUMP JUMPDEST PUSH1 0x0 JUMPDEST DUP4 DUP2 LT ISZERO PUSH2 0xD6C JUMPI DUP1 DUP3 ADD MLOAD DUP2 DUP5 ADD MSTORE PUSH1 0x20 DUP2 ADD SWAP1 POP PUSH2 0xD51 JUMP JUMPDEST PUSH1 0x0 DUP5 DUP5 ADD MSTORE POP POP POP POP JUMP JUMPDEST PUSH1 0x0 PUSH2 0xD83 DUP3 PUSH2 0xD32 JUMP JUMPDEST PUSH2 0xD8D DUP2 DUP6 PUSH2 0xD3D JUMP JUMPDEST SWAP4 POP PUSH2 0xD9D DUP2 DUP6 PUSH1 0x20 DUP7 ADD PUSH2 0xD4E JUMP JUMPDEST PUSH2 0xDA6 DUP2 PUSH2 0xB6B JUMP JUMPDEST DUP5 ADD SWAP2 POP POP SWAP3 SWAP2 POP POP JUMP JUMPDEST PUSH1 0x0 PUSH20 0xFFFFFFFFFFFFFFFFFFFFFFFFFFFFFFFFFFFFFFFF DUP3 AND SWAP1 POP SWAP2 SWAP1 POP JUMP JUMPDEST PUSH1 0x0 PUSH2 0xDDC DUP3 PUSH2 0xDB1 JUMP JUMPDEST SWAP1 POP SWAP2 SWAP1 POP JUMP JUMPDEST PUSH2 0xDEC DUP2 PUSH2 0xDD1 JUMP JUMPDEST DUP3 MSTORE POP POP JUMP JUMPDEST PUSH2 0xDFB DUP2 PUSH2 0xAFE JUMP JUMPDEST DUP3 MSTORE POP POP JUMP JUMPDEST PUSH1 0x0 PUSH2 0xE0C DUP3 PUSH2 0xDB1 JUMP JUMPDEST SWAP1 POP SWAP2 SWAP1 POP JUMP JUMPDEST PUSH2 0xE1C DUP2 PUSH2 0xE01 JUMP JUMPDEST DUP3 MSTORE POP POP JUMP JUMPDEST PUSH1 0x0 DUP2 ISZERO ISZERO SWAP1 POP SWAP2 SWAP1 POP JUMP JUMPDEST PUSH2 0xE37 DUP2 PUSH2 0xE22 JUMP JUMPDEST DUP3 MSTORE POP POP JUMP JUMPDEST PUSH1 0x0 PUSH1 0xE0 DUP3 ADD SWAP1 POP DUP2 DUP2 SUB PUSH1 0x0 DUP4 ADD MSTORE PUSH2 0xE57 DUP2 DUP11 PUSH2 0xD78 JUMP JUMPDEST SWAP1 POP DUP2 DUP2 SUB PUSH1 0x20 DUP4 ADD MSTORE PUSH2 0xE6B DUP2 DUP10 PUSH2 0xD78 JUMP JUMPDEST SWAP1 POP PUSH2 0xE7A PUSH1 0x40 DUP4 ADD DUP9 PUSH2 0xDE3 JUMP JUMPDEST PUSH2 0xE87 PUSH1 0x60 DUP4 ADD DUP8 PUSH2 0xDF2 JUMP JUMPDEST PUSH2 0xE94 PUSH1 0x80 DUP4 ADD DUP7 PUSH2 0xDF2 JUMP JUMPDEST PUSH2 0xEA1 PUSH1 0xA0 DUP4 ADD DUP6 PUSH2 0xE13 JUMP JUMPDEST PUSH2 0xEAE PUSH1 0xC0 DUP4 ADD DUP5 PUSH2 0xE2E JUMP JUMPDEST SWAP9 SWAP8 POP POP POP POP POP POP POP POP JUMP JUMPDEST PUSH32 0x436F6E747261637420646F6573206E6F74206578697374000000000000000000 PUSH1 0x0 DUP3 ADD MSTORE POP JUMP JUMPDEST PUSH1 0x0 PUSH2 0xEF0 PUSH1 0x17 DUP4 PUSH2 0xD3D JUMP JUMPDEST SWAP2 POP PUSH2 0xEFB DUP3 PUSH2 0xEBA JUMP JUMPDEST PUSH1 0x20 DUP3 ADD SWAP1 POP SWAP2 SWAP1 POP JUMP JUMPDEST PUSH1 0x0 PUSH1 0x20 DUP3 ADD SWAP1 POP DUP2 DUP2 SUB PUSH1 0x0 DUP4 ADD MSTORE PUSH2 0xF1F DUP2 PUSH2 0xEE3 JUMP JUMPDEST SWAP1 POP SWAP2 SWAP1 POP JUMP JUMPDEST PUSH32 0x4E487B7100000000000000000000000000000000000000000000000000000000 PUSH1 0x0 MSTORE PUSH1 0x11 PUSH1 0x4 MSTORE PUSH1 0x24 PUSH1 0x0 REVERT JUMPDEST PUSH1 0x0 PUSH2 0xF60 DUP3 PUSH2 0xAFE JUMP JUMPDEST SWAP2 POP PUSH2 0xF6B DUP4 PUSH2 0xAFE JUMP JUMPDEST SWAP3 POP DUP3 DUP3 SUB SWAP1 POP DUP2 DUP2 GT ISZERO PUSH2 0xF83 JUMPI PUSH2 0xF82 PUSH2 0xF26 JUMP JUMPDEST JUMPDEST SWAP3 SWAP2 POP POP JUMP JUMPDEST PUSH32 0x4E487B7100000000000000000000000000000000000000000000000000000000 PUSH1 0x0 MSTORE PUSH1 0x32 PUSH1 0x4 MSTORE PUSH1 0x24 PUSH1 0x0 REVERT JUMPDEST PUSH32 0x4F6E6C792062757965722063616E20636F6E6669726D00000000000000000000 PUSH1 0x0 DUP3 ADD MSTORE POP JUMP JUMPDEST PUSH1 0x0 PUSH2 0xFEE PUSH1 0x16 DUP4 PUSH2 0xD3D JUMP JUMPDEST SWAP2 POP PUSH2 0xFF9 DUP3 PUSH2 0xFB8 JUMP JUMPDEST PUSH1 0x20 DUP3 ADD SWAP1 POP SWAP2 SWAP1 POP JUMP JUMPDEST PUSH1 0x0 PUSH1 0x20 DUP3 ADD SWAP1 POP DUP2 DUP2 SUB PUSH1 0x0 DUP4 ADD MSTORE PUSH2 0x101D DUP2 PUSH2 0xFE1 JUMP JUMPDEST SWAP1 POP SWAP2 SWAP1 POP JUMP JUMPDEST PUSH1 0x0 PUSH1 0x20 DUP3 ADD SWAP1 POP PUSH2 0x1039 PUSH1 0x0 DUP4 ADD DUP5 PUSH2 0xDF2 JUMP JUMPDEST SWAP3 SWAP2 POP POP JUMP JUMPDEST PUSH32 0x50726963652073686F756C642062652067726561746572207468616E207A6572 PUSH1 0x0 DUP3 ADD MSTORE PUSH32 0x6F00000000000000000000000000000000000000000000000000000000000000 PUSH1 0x20 DUP3 ADD MSTORE POP JUMP JUMPDEST PUSH1 0x0 PUSH2 0x109B PUSH1 0x21 DUP4 PUSH2 0xD3D JUMP JUMPDEST SWAP2 POP PUSH2 0x10A6 DUP3 PUSH2 0x103F JUMP JUMPDEST PUSH1 0x40 DUP3 ADD SWAP1 POP SWAP2 SWAP1 POP JUMP JUMPDEST PUSH1 0x0 PUSH1 0x20 DUP3 ADD SWAP1 POP DUP2 DUP2 SUB PUSH1 0x0 DUP4 ADD MSTORE PUSH2 0x10CA DUP2 PUSH2 0x108E JUMP JUMPDEST SWAP1 POP SWAP2 SWAP1 POP JUMP JUMPDEST PUSH1 0x0 PUSH2 0x10DC DUP3 PUSH2 0xAFE JUMP JUMPDEST SWAP2 POP PUSH2 0x10E7 DUP4 PUSH2 0xAFE JUMP JUMPDEST SWAP3 POP DUP3 DUP3 MUL PUSH2 0x10F5 DUP2 PUSH2 0xAFE JUMP JUMPDEST SWAP2 POP DUP3 DUP3 DIV DUP5 EQ DUP4 ISZERO OR PUSH2 0x110C JUMPI PUSH2 0x110B PUSH2 0xF26 JUMP JUMPDEST JUMPDEST POP SWAP3 SWAP2 POP POP JUMP JUMPDEST PUSH32 0x4E487B7100000000000000000000000000000000000000000000000000000000 PUSH1 0x0 MSTORE PUSH1 0x22 PUSH1 0x4 MSTORE PUSH1 0x24 PUSH1 0x0 REVERT JUMPDEST PUSH1 0x0 PUSH1 0x2 DUP3 DIV SWAP1 POP PUSH1 0x1 DUP3 AND DUP1 PUSH2 0x115A JUMPI PUSH1 0x7F DUP3 AND SWAP2 POP JUMPDEST PUSH1 0x20 DUP3 LT DUP2 SUB PUSH2 0x116D JUMPI PUSH2 0x116C PUSH2 0x1113 JUMP JUMPDEST JUMPDEST POP SWAP2 SWAP1 POP JUMP JUMPDEST PUSH1 0x0 DUP2 SWAP1 POP DUP2 PUSH1 0x0 MSTORE PUSH1 0x20 PUSH1 0x0 KECCAK256 SWAP1 POP SWAP2 SWAP1 POP JUMP JUMPDEST PUSH1 0x0 PUSH1 0x20 PUSH1 0x1F DUP4 ADD DIV SWAP1 POP SWAP2 SWAP1 POP JUMP JUMPDEST PUSH1 0x0 DUP3 DUP3 SHL SWAP1 POP SWAP3 SWAP2 POP POP JUMP JUMPDEST PUSH1 0x0 PUSH1 0x8 DUP4 MUL PUSH2 0x11D5 PUSH32 0xFFFFFFFFFFFFFFFFFFFFFFFFFFFFFFFFFFFFFFFFFFFFFFFFFFFFFFFFFFFFFFFF DUP3 PUSH2 0x1198 JUMP JUMPDEST PUSH2 0x11DF DUP7 DUP4 PUSH2 0x1198 JUMP JUMPDEST SWAP6 POP DUP1 NOT DUP5 AND SWAP4 POP DUP1 DUP7 AND DUP5 OR SWAP3 POP POP POP SWAP4 SWAP3 POP POP POP JUMP JUMPDEST PUSH1 0x0 DUP2 SWAP1 POP SWAP2 SWAP1 POP JUMP JUMPDEST PUSH1 0x0 PUSH2 0x121C PUSH2 0x1217 PUSH2 0x1212 DUP5 PUSH2 0xAFE JUMP JUMPDEST PUSH2 0x11F7 JUMP JUMPDEST PUSH2 0xAFE JUMP JUMPDEST SWAP1 POP SWAP2 SWAP1 POP JUMP JUMPDEST PUSH1 0x0 DUP2 SWAP1 POP SWAP2 SWAP1 POP JUMP JUMPDEST PUSH2 0x1236 DUP4 PUSH2 0x1201 JUMP JUMPDEST PUSH2 0x124A PUSH2 0x1242 DUP3 PUSH2 0x1223 JUMP JUMPDEST DUP5 DUP5 SLOAD PUSH2 0x11A5 JUMP JUMPDEST DUP3 SSTORE POP POP POP POP JUMP JUMPDEST PUSH1 0x0 SWAP1 JUMP JUMPDEST PUSH2 0x125F PUSH2 0x1252 JUMP JUMPDEST PUSH2 0x126A DUP2 DUP5 DUP5 PUSH2 0x122D JUMP JUMPDEST POP POP POP JUMP JUMPDEST JUMPDEST DUP2 DUP2 LT ISZERO PUSH2 0x128E JUMPI PUSH2 0x1283 PUSH1 0x0 DUP3 PUSH2 0x1257 JUMP JUMPDEST PUSH1 0x1 DUP2 ADD SWAP1 POP PUSH2 0x1270 JUMP JUMPDEST POP POP JUMP JUMPDEST PUSH1 0x1F DUP3 GT ISZERO PUSH2 0x12D3 JUMPI PUSH2 0x12A4 DUP2 PUSH2 0x1173 JUMP JUMPDEST PUSH2 0x12AD DUP5 PUSH2 0x1188 JUMP JUMPDEST DUP2 ADD PUSH1 0x20 DUP6 LT ISZERO PUSH2 0x12BC JUMPI DUP2 SWAP1 POP JUMPDEST PUSH2 0x12D0 PUSH2 0x12C8 DUP6 PUSH2 0x1188 JUMP JUMPDEST DUP4 ADD DUP3 PUSH2 0x126F JUMP JUMPDEST POP POP JUMPDEST POP POP POP JUMP JUMPDEST PUSH1 0x0 DUP3 DUP3 SHR SWAP1 POP SWAP3 SWAP2 POP POP JUMP JUMPDEST PUSH1 0x0 PUSH2 0x12F6 PUSH1 0x0 NOT DUP5 PUSH1 0x8 MUL PUSH2 0x12D8 JUMP JUMPDEST NOT DUP1 DUP4 AND SWAP2 POP POP SWAP3 SWAP2 POP POP JUMP JUMPDEST PUSH1 0x0 PUSH2 0x130F DUP4 DUP4 PUSH2 0x12E5 JUMP JUMPDEST SWAP2 POP DUP3 PUSH1 0x2 MUL DUP3 OR SWAP1 POP SWAP3 SWAP2 POP POP JUMP JUMPDEST PUSH2 0x1328 DUP3 PUSH2 0xD32 JUMP JUMPDEST PUSH8 0xFFFFFFFFFFFFFFFF DUP2 GT ISZERO PUSH2 0x1341 JUMPI PUSH2 0x1340 PUSH2 0xB7C JUMP JUMPDEST JUMPDEST PUSH2 0x134B DUP3 SLOAD PUSH2 0x1142 JUMP JUMPDEST PUSH2 0x1356 DUP3 DUP3 DUP6 PUSH2 0x1292 JUMP JUMPDEST PUSH1 0x0 PUSH1 0x20 SWAP1 POP PUSH1 0x1F DUP4 GT PUSH1 0x1 DUP2 EQ PUSH2 0x1389 JUMPI PUSH1 0x0 DUP5 ISZERO PUSH2 0x1377 JUMPI DUP3 DUP8 ADD MLOAD SWAP1 POP JUMPDEST PUSH2 0x1381 DUP6 DUP3 PUSH2 0x1303 JUMP JUMPDEST DUP7 SSTORE POP PUSH2 0x13E9 JUMP JUMPDEST PUSH1 0x1F NOT DUP5 AND PUSH2 0x1397 DUP7 PUSH2 0x1173 JUMP JUMPDEST PUSH1 0x0 JUMPDEST DUP3 DUP2 LT ISZERO PUSH2 0x13BF JUMPI DUP5 DUP10 ADD MLOAD DUP3 SSTORE PUSH1 0x1 DUP3 ADD SWAP2 POP PUSH1 0x20 DUP6 ADD SWAP5 POP PUSH1 0x20 DUP2 ADD SWAP1 POP PUSH2 0x139A JUMP JUMPDEST DUP7 DUP4 LT ISZERO PUSH2 0x13DC JUMPI DUP5 DUP10 ADD MLOAD PUSH2 0x13D8 PUSH1 0x1F DUP10 AND DUP3 PUSH2 0x12E5 JUMP JUMPDEST DUP4 SSTORE POP JUMPDEST PUSH1 0x1 PUSH1 0x2 DUP9 MUL ADD DUP9 SSTORE POP POP POP JUMPDEST POP POP POP POP POP POP JUMP JUMPDEST PUSH1 0x0 PUSH2 0x13FC DUP3 PUSH2 0xAFE JUMP JUMPDEST SWAP2 POP PUSH32 0xFFFFFFFFFFFFFFFFFFFFFFFFFFFFFFFFFFFFFFFFFFFFFFFFFFFFFFFFFFFFFFFF DUP3 SUB PUSH2 0x142E JUMPI PUSH2 0x142D PUSH2 0xF26 JUMP JUMPDEST JUMPDEST PUSH1 0x1 DUP3 ADD SWAP1 POP SWAP2 SWAP1 POP JUMP JUMPDEST PUSH1 0x0 PUSH1 0x60 DUP3 ADD SWAP1 POP DUP2 DUP2 SUB PUSH1 0x0 DUP4 ADD MSTORE PUSH2 0x1453 DUP2 DUP7 PUSH2 0xD78 JUMP JUMPDEST SWAP1 POP PUSH2 0x1462 PUSH1 0x20 DUP4 ADD DUP6 PUSH2 0xDF2 JUMP JUMPDEST PUSH2 0x146F PUSH1 0x40 DUP4 ADD DUP5 PUSH2 0xE13 JUMP JUMPDEST SWAP5 SWAP4 POP POP POP POP JUMP JUMPDEST PUSH32 0x6F6E6C79206D616E616765722063616E2063616C6C20746869732066756E6374 PUSH1 0x0 DUP3 ADD MSTORE PUSH32 0x696F6E0000000000000000000000000000000000000000000000000000000000 PUSH1 0x20 DUP3 ADD MSTORE POP JUMP JUMPDEST PUSH1 0x0 PUSH2 0x14D3 PUSH1 0x23 DUP4 PUSH2 0xD3D JUMP JUMPDEST SWAP2 POP PUSH2 0x14DE DUP3 PUSH2 0x1477 JUMP JUMPDEST PUSH1 0x40 DUP3 ADD SWAP1 POP SWAP2 SWAP1 POP JUMP JUMPDEST PUSH1 0x0 PUSH1 0x20 DUP3 ADD SWAP1 POP DUP2 DUP2 SUB PUSH1 0x0 DUP4 ADD MSTORE PUSH2 0x1502 DUP2 PUSH2 0x14C6 JUMP JUMPDEST SWAP1 POP SWAP2 SWAP1 POP JUMP JUMPDEST PUSH32 0x506C656173652050617920746865206578616374207072696365000000000000 PUSH1 0x0 DUP3 ADD MSTORE POP JUMP JUMPDEST PUSH1 0x0 PUSH2 0x153F PUSH1 0x1A DUP4 PUSH2 0xD3D JUMP JUMPDEST SWAP2 POP PUSH2 0x154A DUP3 PUSH2 0x1509 JUMP JUMPDEST PUSH1 0x20 DUP3 ADD SWAP1 POP SWAP2 SWAP1 POP JUMP JUMPDEST PUSH1 0x0 PUSH1 0x20 DUP3 ADD SWAP1 POP DUP2 DUP2 SUB PUSH1 0x0 DUP4 ADD MSTORE PUSH2 0x156E DUP2 PUSH2 0x1532 JUMP JUMPDEST SWAP1 POP SWAP2 SWAP1 POP JUMP JUMPDEST PUSH32 0x53656C6C65722063616E6E6F7420626520746865206275796572000000000000 PUSH1 0x0 DUP3 ADD MSTORE POP JUMP JUMPDEST PUSH1 0x0 PUSH2 0x15AB PUSH1 0x1A DUP4 PUSH2 0xD3D JUMP JUMPDEST SWAP2 POP PUSH2 0x15B6 DUP3 PUSH2 0x1575 JUMP JUMPDEST PUSH1 0x20 DUP3 ADD SWAP1 POP SWAP2 SWAP1 POP JUMP JUMPDEST PUSH1 0x0 PUSH1 0x20 DUP3 ADD SWAP1 POP DUP2 DUP2 SUB PUSH1 0x0 DUP4 ADD MSTORE PUSH2 0x15DA DUP2 PUSH2 0x159E JUMP JUMPDEST SWAP1 POP SWAP2 SWAP1 POP JUMP JUMPDEST PUSH1 0x0 PUSH1 0x40 DUP3 ADD SWAP1 POP PUSH2 0x15F6 PUSH1 0x0 DUP4 ADD DUP6 PUSH2 0xDF2 JUMP JUMPDEST PUSH2 0x1603 PUSH1 0x20 DUP4 ADD DUP5 PUSH2 0xE13 JUMP JUMPDEST SWAP4 SWAP3 POP POP POP JUMP INVALID LOG2 PUSH5 0x6970667358 0x22 SLT KECCAK256 0xEA 0xF DUP15 0xAE 0x2E PUSH18 0x45B3C4BB36758C65E023B593E719D017F0E1 DUP6 SELFDESTRUCT 0xDA LOG1 EXTCODECOPY 0xD2 ORIGIN 0xE9 PUSH5 0x736F6C6343 STOP ADDMOD SLT STOP CALLER "
				},
				"gasEstimates": {
					"creation": {
						"codeDepositCost": "1139200",
						"executionCost": "71869",
						"totalCost": "1211069"
					},
					"external": {
						"buy(uint256)": "infinite",
						"delivery(uint256)": "infinite",
						"destroy()": "32094",
						"products(uint256)": "infinite",
						"registerProduct(string,string,uint256)": "infinite"
					}
				},
				"methodIdentifiers": {
					"buy(uint256)": "d96a094a",
					"delivery(uint256)": "1144fd72",
					"destroy()": "83197ef0",
					"products(uint256)": "7acc0b20",
					"registerProduct(string,string,uint256)": "3153a15b"
				}
			},
			"storageLayout": {
				"storage": [
					{
						"astId": 19,
						"contract": "Ecommerce Contract/Ecommerce.sol:Ecommerce",
						"label": "counter",
						"offset": 0,
						"slot": "0",
						"type": "t_uint256"
					},
					{
						"astId": 23,
						"contract": "Ecommerce Contract/Ecommerce.sol:Ecommerce",
						"label": "products",
						"offset": 0,
						"slot": "1",
						"type": "t_array(t_struct(Product)16_storage)dyn_storage"
					},
					{
						"astId": 25,
						"contract": "Ecommerce Contract/Ecommerce.sol:Ecommerce",
						"label": "manager",
						"offset": 0,
						"slot": "2",
						"type": "t_address_payable"
					},
					{
						"astId": 28,
						"contract": "Ecommerce Contract/Ecommerce.sol:Ecommerce",
						"label": "destroyed",
						"offset": 20,
						"slot": "2",
						"type": "t_bool"
					}
				],
				"types": {
					"t_address": {
						"encoding": "inplace",
						"label": "address",
						"numberOfBytes": "20"
					},
					"t_address_payable": {
						"encoding": "inplace",
						"label": "address payable",
						"numberOfBytes": "20"
					},
					"t_array(t_struct(Product)16_storage)dyn_storage": {
						"base": "t_struct(Product)16_storage",
						"encoding": "dynamic_array",
						"label": "struct Ecommerce.Product[]",
						"numberOfBytes": "32"
					},
					"t_bool": {
						"encoding": "inplace",
						"label": "bool",
						"numberOfBytes": "1"
					},
					"t_string_storage": {
						"encoding": "bytes",
						"label": "string",
						"numberOfBytes": "32"
					},
					"t_struct(Product)16_storage": {
						"encoding": "inplace",
						"label": "struct Ecommerce.Product",
						"members": [
							{
								"astId": 3,
								"contract": "Ecommerce Contract/Ecommerce.sol:Ecommerce",
								"label": "title",
								"offset": 0,
								"slot": "0",
								"type": "t_string_storage"
							},
							{
								"astId": 5,
								"contract": "Ecommerce Contract/Ecommerce.sol:Ecommerce",
								"label": "desc",
								"offset": 0,
								"slot": "1",
								"type": "t_string_storage"
							},
							{
								"astId": 7,
								"contract": "Ecommerce Contract/Ecommerce.sol:Ecommerce",
								"label": "seller",
								"offset": 0,
								"slot": "2",
								"type": "t_address_payable"
							},
							{
								"astId": 9,
								"contract": "Ecommerce Contract/Ecommerce.sol:Ecommerce",
								"label": "productId",
								"offset": 0,
								"slot": "3",
								"type": "t_uint256"
							},
							{
								"astId": 11,
								"contract": "Ecommerce Contract/Ecommerce.sol:Ecommerce",
								"label": "price",
								"offset": 0,
								"slot": "4",
								"type": "t_uint256"
							},
							{
								"astId": 13,
								"contract": "Ecommerce Contract/Ecommerce.sol:Ecommerce",
								"label": "buyer",
								"offset": 0,
								"slot": "5",
								"type": "t_address"
							},
							{
								"astId": 15,
								"contract": "Ecommerce Contract/Ecommerce.sol:Ecommerce",
								"label": "delivered",
								"offset": 20,
								"slot": "5",
								"type": "t_bool"
							}
						],
						"numberOfBytes": "192"
					},
					"t_uint256": {
						"encoding": "inplace",
						"label": "uint256",
						"numberOfBytes": "32"
					}
				}
			},
			"userdoc": {
				"kind": "user",
				"methods": {},
				"version": 1
			}
		}
	}
}